:1000000000380020C12000009D67000095200000FE
:1000100095200000952000009520000000000000C1
:100020000000000000000000000000000D1C0000A7
:1000300095200000000000009520000095200000A1
:10004000951C0000951C0000951C0000951C0000EC
:10005000951C0000951C0000951C0000951C0000DC
:10006000951C0000951C0000951C0000951C0000CC
:10007000951C0000951C0000951C0000951C0000BC
:10008000951C0000951C0000951C0000951C0000AC
:10009000951C0000951C0000951C0000951C00009C
:1000A000951C0000951C0000951C0000951C00008C
:1000B000951C0000951C0000951C0000951C00007C
:1000C000951C0000951C0000951C0000951C00006C
:1000D000951C0000951C0000951C0000951C00005C
:1000E000951C0000951C0000951C0000951C00004C
:1000F000951C0000951C0000951C0000951C00003C
:1001000053B94AB9002908BF00281CBF4FF0FF317E
:100110004FF0FF3000F06EB9ADF1080C6DE904CE80
:1001200000F006F8DDF804E0DDE9022304B07047D2
:100130002DE9F047089D04468C46002B40F0838053
:100140008A42174647D9B2FA82F242B1C2F1200080
:1001500024FA00F09140974040EA010C94404FEAA5
:100160001748230CBCFBF8F61FFA87FE08FB16C1E4
:1001700043EA014306FB0EF1994209D9FB1806F147
:10018000FF3080F01981994240F21681023E3B44D3
:100190005B1AA4B2B3FBF8F008FB103344EA034443
:1001A00000FB0EFEA64509D93C1900F1FF3380F093
:1001B0000581A64540F2028102383C4440EA0640EF
:1001C000A4EB0E0400261DB1D4400023C5E9004372
:1001D0003146BDE8F08702B9FFDEB2FA82F2002AAA
:1001E00050D1CB1B4FEA174E1FFA87F80126B3FBFD
:1001F000FEFC210C0EFB1C3341EA034108FB0CF30F
:100200008B4207D979180CF1FF3002D28B4200F2F1
:10021000E9808446C91AA3B2B1FBFEF00EFB1011AF
:1002200043EA014408FB00F8A04507D93C1900F156
:10023000FF3302D2A04500F2D9801846A4EB08048F
:1002400040EA0C40BFE78B4209D9002D00F0B18095
:100250000026C5E9000130463146BDE8F087B3FA13
:1002600083F6002E4AD18B4202D3824200F2B8803C
:10027000841A61EB030101208C46002DA8D0C5E94A
:10028000004CA5E7C2F1200320FA03F6974001FADB
:1002900002F04FEA174ED9403043030CB1FBFEF693
:1002A0001FFA87F80EFB161143EA014306FB08F11B
:1002B000994204FA02F409D9FB1806F1FF3C80F0D8
:1002C0008D80994240F28A80023E3B445B1A81B2A3
:1002D000B3FBFEF00EFB103341EA034100FB08F3D1
:1002E0008B4207D9791800F1FF3C73D28B4271D948
:1002F00002383944CB1A40EA064678E7C6F1200CAA
:1003000003FA06F422FA0CF31C4320FA0CF701FA64
:1003100006F34FEA144E21FA0CF11F433B0CB1FBDC
:10032000FEF91FFA84F80EFB191143EA014109FB9B
:1003300008FA8A4502FA06F200FA06F308D96118AB
:1003400009F1FF3048D28A4546D9A9F10209214472
:10035000A1EB0A01BFB2B1FBFEF00EFB101147EAA0
:10036000014700FB08F8B84507D9E71900F1FF314C
:100370002ED2B8452CD90238274440EA0940A7EBD1
:100380000807A0FB02894F45C64649461AD317D035
:100390005DB1B3EB0E0267EB010707FA0CFCF2400C
:1003A0004CEA0202F740C5E9002700263146BDE8C5
:1003B000F0872E4628460BE70646E9E61846FDE696
:1003C0004345E5D2B8EB020E69EB04010138DFE7E3
:1003D0000846D2E760468DE78146B9E7664675E78D
:1003E00030464AE7ACF1020C394413E702383C448A
:1003F00024E700BF704700BF7FB5304B304AC3F8D9
:1004000000263048C3F804264921C3F80826C3F85B
:100410000C26C3F81026C3F81426C3F81826C3F810
:100420001C2606F0F7F805F0A8FC274800F05CF859
:1004300028B9254A2548452106F0ECF8FEE701A831
:1004400000F06EFC224B1B68834204D021484521FA
:1004500006F0E0F8FEE7039A1F48492106F0DAF8B3
:100460001E48492106F0D6F84FF44041002006F01E
:1004700067FB20B11A48452106F0CCF8FEE7694633
:100480009DF8080000F03CF8009B039C1C44019B75
:100490001D8900F029FF66194FF02002EFF3118348
:1004A00082F31288BFF36F8F635983F308887368F0
:1004B00098470C48452106F0ADF8FEE700000140E2
:1004C0003546526E1C7500003575000048750000F9
:1004D000D4010020677500008A750000B97500001E
:1004E000DE7500001176000010B5044C236813B9C6
:1004F00003F0DEFE2060206810BD00BFD0010020A8
:1005000008B540B1024600230448452106F082F8B0
:100510006FF0150008BD0860FCE700BF34760000EE
:100520002DE9F04FDFF81C92DDB015461E46DDE9DF
:100530006848DDF898B1D9F8007000F0A3FE7F4B51
:100540000122C3F800253CA804F04CFBCDF8149020
:100550003CB1B8F1000F04DD424621463CA805F04D
:1005600064FF6B89B5F808809844EB684FF0000988
:100570009844C8454ED80FA93CA804F0A5FB6F4B82
:100580000022C3F80025C3F800256A9B23B120226E
:100590000FA9184606F02CF90023009332464FF6B7
:1005A000FF73294609A805F0E9FB0446002844D159
:1005B000DFF894A1DFF8848103904FF0FF350DF14F
:1005C0001E0307AA08A909A805F024FC041E34DBB1
:1005D00040F0A480BDF81E90B9F1100F38D1BDF8DD
:1005E0001C90B9F1200F40F0A38008994B463CAA1B
:1005F000304606F01DF80446F8B94A463CA90FA853
:1006000005F07FFC04464E4B1B68834215D1012345
:100610000393D4E7679AA8EB09039A4228BF1A46C6
:100620001346924649465A46304606F001F80446BB
:1006300038B1424B0022C3F8002520465DB0BDE82A
:10064000F08F524659463CA805F0EFFED14490E7A2
:10065000B9F1010F3FD1BDF81C30202B68D80899A3
:100660003CAA304605F0E4FF04460028E5D19DF899
:100670001C50202D0AD8DAF80030DFF8D0B00493EF
:10068000049B9C4205DB0023C8F800354FF0FF3483
:100690001DE000F0F7FDC8F800951FA804F0A2FACD
:1006A000DBF804205BF8081B12681FA805F0BDFEEC
:1006B00017A91FA804F008FB0022C8F800253CA9D0
:1006C0002A4617A806F084F818B9C8F80005254688
:1006D00075E70134D4E7B9F1220F7FF470AF002D34
:1006E00019DBDAF80030AB4215DDBDF81C30802B89
:1006F0001ED808993CAA304605F09AFF0446002807
:100700009BD1EDB2BDF81C3000953CAA20210FA86A
:1007100000F01EF807464FF0FF3550E7039B53B13A
:10072000074B1B68BB4201D0059B1F683C4684E712
:100730004FF0FF3481E701247FE700BF00A00250A3
:10074000D401002000000020F8700000FC700000C0
:100750002DE9F04196B017461D469DF87020354BA7
:100760000E4653F83210019103EBC20380465B68DA
:10077000186802AA0144302301A805F0E3FD10B176
:100780004FF0FF3053E0DDE901431C4403AA06AB00
:10079000214601A805F0FEFD0028F1D1049A072AA0
:1007A000EED12549059806F013F80028E8D1079AFC
:1007B000082AE5D12149089806F00AF80028DFD177
:1007C00002AA214601A805F0D1FD0028D8D1DDE913
:1007D000013213449C42D3D1412AD1D13D4430232C
:1007E00003AA294602A8029705F0ACFD0028C7D14C
:1007F000DDE9023213449D42C2D32A4602A906A86B
:1008000005F053FB0028BBD12A4602A90EA805F02B
:100810004CFB0028B4D1202EB2D101990B78042BC7
:10082000AED1334606AA0131404600F043FD16B072
:10083000BDE8F081FC7000005A760000627600008E
:100840002DE9F04186B00223DFF86C80ADF800306E
:100850000D466F46002617F8010B01A901F0CAF8F2
:100860000446A0B901988168102302AA103905F046
:10087000DFFE0446019805F0DAFE44B91022414635
:1008800002A805F0A5FF40B12EB14FF0FF3420467D
:1008900006B0BDE8F0810126DDE7019806F06FF9AA
:1008A0000423A0F108012A46019805F0C1FE044680
:1008B000019805F0BCFEEAE7707300002DE9F041F5
:1008C000384B88B0064600200D461C6805F04AFAF1
:1008D00006A9C0B201F08EF8002857D1294605F0CC
:1008E00041FA2C2407A9C0B204FB056401F082F888
:1008F000002836D04FF02C0808FB05F806EB080757
:10090000396911F0100137D14FF480730193264BF0
:1009100000932246CDE90311069B02910846FFF79A
:10092000FFFD0446214B56F8082006989A420CD148
:100930003A89FB68D1438B4207D8134482689342BB
:1009400003D21B4B1B68A3421DD045B38268002114
:1009500005F0B8FE174A1848452105F05BFE012452
:1009600011E0079805F0E6FE0746079805F05FFEE0
:10097000631EE21C93420DD1002DF0D00699304643
:1009800005F0BFFB2C46069805F051FE204608B046
:10099000BDE8F08113F8011FB942EBD0AAE7074A7E
:1009A000D9E700BF00000020FC0E00203DB8F39600
:1009B000D40100206B7600007D7600007576000083
:1009C00073B50D46044600212846CDE9001105F017
:1009D00057FB30B3164E2268B24203D101AA20461B
:1009E00005F0C3FAE36AB34204D16A460121204606
:1009F00005F0BBFADDE90032934288BF0193019B09
:100A0000AB60019A2946204600F034FB094B1A6876
:100A1000002A03DD0848572105F0FCFD002002B044
:100A200070BD05F10801FFF70BFFAB680193E8E724
:100A30003DB8F396380E0020A57600002DE9F84F5A
:100A4000DFF878B01B4C1C4D8A469046994600262C
:100A50000B9B9E4201D300200FE00B9B174A9F1B6C
:100A6000B7F5806F28BF4FF480673B4606EB09015E
:100A7000504605F0DDFD10B10120BDE8F88F0A9960
:100A80003B465A467118404605F0EEFD0028F3D16A
:100A9000C4F800563E44C4F80456C4F80856C4F8D6
:100AA0000C56C4F81056C4F81456C4F81856C4F8B6
:100AB0001C56CDE7000001403546526E380200203A
:100AC0002DE9F0438E4B1E688E4B43620F468E4BD2
:100AD0000365002185B00446084605F043F904F19A
:100AE0002001C0B200F086FF0121002005F03AF994
:100AF00004F14C01C0B200F07DFF0546204605F030
:100B000095FA804668B900221146204605F075FA2C
:100B1000804600B37D480022572105F07BFD01236C
:100B200091E07B488022572105F074FD0123984510
:100B300084F85830E7D194F858308DF80730042BFA
:100B400000F28480012B00F2888000F09F80FF2358
:100B500084F858309AE0204600F0A4F90028DED04E
:100B6000684605F084FA6946204605F01FFB18B177
:100B7000684842465721D0E7684605F081FA80F080
:100B800001006A46C1B2204605F037FA0246002845
:100B9000C0D1684605F074FA804660BB69462046BD
:100BA000FFF70EFF9DF8073084F85830033B012B08
:100BB00006D8404605F048FB10B1FF2384F85830B2
:100BC0009DF80730023B022B0BD8002005F02AFBD2
:100BD00038B1FF2384F858304F48452105F01AFDFD
:100BE000FEE794F85830FF2BF6D06A4600212046E5
:100BF00005F003FA93E79DF80790B9F1010F17D1BB
:100C0000104602F021FD831E022B80460DD8494676
:100C10002046FFF753FE414B1B68984205D0012840
:100C20000CBF4FF001084FF0050884F8588082E7A8
:100C300001212046FFF742FE384B1B6898420CBF4B
:100C40009DF80730052384F8583074E7052B7FF4AE
:100C50007EAF002005F0F8FA13E069462046FFF762
:100C6000AFFE94F85830DA1E012A05460CD8002051
:100C700005F0EAFA054600287FF469AF002005F088
:100C8000D1FA054610B162E7022BF7D094F858303C
:100C9000FF2B04D12048452105F0BCFCFEE7012BC9
:100CA00006D06A460021204605F0A7F90546D0B9CE
:100CB00000212046FFF702FE0646DFF86080D8F8E4
:100CC000003098420FD110220021684605F09BFDAC
:100CD000206A05F050F83871236AD8F800605B6824
:100CE000BB603C600025E06C05F0A1FC206A05F0CB
:100CF0009EFC002D14BF2846304605B0BDE8F083A9
:100D00000000002038060020380A00201677000076
:100D1000D4760000427700006C770000D4010020F8
:100D200038B5064D044660220021284605F06BFDCB
:100D300021462846FFF7C4FE38BD00BFD801002079
:100D400073B516461C4633B3436A5D686379012B5D
:100D500015D101BB1F4B22681B689A4298BF002522
:100D6000002004F0FFFF01A9C0B200F043FEF0B183
:100D70000125019805F05BFC284602B070BD022BEE
:100D800009D12368012B08D9124A1268934202D86C
:100D9000B1FA81F149090025E2E7FCD10029DFD051
:100DA0000129F8D12179023918BF0121F3E7294639
:100DB00001982023324605F03BFC05460028D7D198
:100DC000002CD6D0356804482D1A18BF4FF0FF35D7
:100DD000CFE700BF040000203DB8F3962DE9F04FA7
:100DE000074685B00C4601460020164605F090F8EF
:100DF000051E51DB3846E46D05F097F85FFA84F97B
:100E000005F1FF3809FB08084FF0000A4FF0010B0D
:100E10004FF0FF349DB9BAF1010F03DD20484521A1
:100E200005F0F8FB631C06D07F2C2ADC013440F26D
:100E300001133460B380284605B0BDE8F08F6B1E07
:100E400000930DF10F0201234146384605F0F0FBF7
:100E5000031E019322DB01220DF10F01384605F03C
:100E60009FFE019B40B15B4501D00AF1010A009D44
:100E7000A8EB09089B46CDE7B4F1FF3F08BF2C461D
:100E8000F5E70223803C7371631004F00104013321
:100E9000013433603471CEE70725CCE70125CAE77A
:100EA00078770000816A426D8A4238B508D0531CB9
:100EB0008B4205D01348572105F0ACFB002038BD0C
:100EC00080291CD910485721F6E7446A056D04EBC8
:100ED000C30405EBC30564686D68AC4202D00B48DF
:100EE0005721E9E701339A42EFD1914205D9436A8C
:100EF00003EBC2025368A342F1D10120DFE70023D4
:100F00001C46F0E79B770000D377000002780000D2
:100F100000B589B004A9022005F0A7FE9DF81020B5
:100F2000012A41D0254B2649032A18BF0B469DF8BC
:100F3000132002929DF8122001929DF81120214861
:100F400000924921204A05F065FB06A9052005F01D
:100F50008CFE9DF81820012A28D0184B1849032A26
:100F600018BF0B469DF81B2002929DF81A20019293
:100F70009DF8192000921348144A492105F04AFBB4
:100F80009DF81030012B13D19DF81230032B0FD197
:100F90009DF81830012B0BD00D48492105F03AFB84
:100FA000022009B05DF804FB0A4BC0E7094BD9E702
:100FB0000948492105F02EFB0020F2E733780000B4
:100FC000397800004B7800003D7800008C780000F4
:100FD0009C7800002E780000BB78000070B54B684C
:100FE00014461E4A03F0FF23934286B006460D4680
:100FF0002FD10B68012B2CD104A9204602F0D4FA82
:101000009DF81020012A26D0154B1649032A18BF37
:101010000B469DF8132002929DF8122001929DF834
:10102000112000921048114A492105F0F3FA9DF869
:101030001030032B0DD12146304605F062F82046D2
:1010400005F00AFEA968204604F080FF204602F061
:101050009DFA06B070BD064BDBE700BF000100043F
:1010600033780000397800004B7800008C7800005D
:101070002E7800002DE9F04F2DED028B436A0C46CF
:101080005E688BB005460121002333449A4208462E
:1010900001F10101F9D8784F3860204604F0F0FFE3
:1010A000BB46C8B1E86D04F02EFFAB6A0022013BDD
:1010B0003244904201D9013BFAE7DBF800209A4222
:1010C0000AD36E48572105F0A5FA0123E3710BB04E
:1010D000BDEC028BBDE8F08F08A9022000F08AFC6D
:1010E00009A9052000F086FC099A21462846FFF749
:1010F00075FF6379012B08D1DBF80070DFF880A160
:10110000DBF80030A7B9012323600223DFF87081E8
:10111000637101270593DBF80030DDF820909F42D2
:101120004DD9484605F083FA099805F080FACEE7D4
:10113000226801339B1A9F423FD86B6ADDF82080FA
:10114000196853F8370003EBC703012A53F8083C2A
:10115000A3EB010308EE103AA0EB010912D1E268FB
:10116000099B022A0AD041462846039304F0C9FF8E
:1011700022464146284604F0FAFF039B19462846BA
:1011800004F0BFFF32464946404604F0B8FF18EE6F
:10119000103A42464146CDE900962846FFF74EFCFC
:1011A0002146284604F079FF23680133236020B1EB
:1011B000DAF800300133CAF80030013FA0E72368B5
:1011C0009F4256D3696A286D51F837300493FA006C
:1011D000083A0B6850F802C0039303682079DDF8E1
:1011E00024A00128ACEB030341D189580793039B4A
:1011F0003246C91A4846069104F081FF0699079BBA
:1012000000914A465146019628460693FFF716FC80
:101210002146284604F041FF059B2371069B20B11F
:10122000D8F800200132C8F800201946324650464E
:10123000069304F064FF069B0093DDE9032349460F
:101240009B1A019652462846FFF7F8FB214628468E
:1012500004F023FF2368013323604FF0010323715F
:1012600038B1D8F800300133C8F8003001E0022866
:10127000DBD001374FE700BF04000020D278000028
:10128000380E002070B5094D2B7853B9084C012653
:10129000C4F8006503F048FD28B92E70C4F80005B5
:1012A00070BD0020FCE74FF0FF30F9E7FC0F002095
:1012B00000A0025070B50B4EAEB01D46CDE9022124
:1012C0000446FFF7DFFF0123C6F80035DDE9022100
:1012D0002346009505A805F072FD0023C6F80035E9
:1012E0002EB070BD00A00250174B184901221A60A1
:1012F0004FF0FF33C1F84833C1F8083301F5C0415E
:1013000004310A60C1F84433C1F8043301F598315F
:101310000A600F4AC2F84833C2F80833A2F508320F
:101320000021C2F80015C2F8083302F51832C2F8DD
:101330000015C2F80833A2F51042C2F808354FF084
:101340008042C2F80833704704B0004000B000404B
:10135000004002400B6801330B60014B1B681847CB
:1013600008000020014B1860704700BF08000020F3
:1013700007B50B46002102460191034801A900F080
:10138000EDF803B05DF804FB551300002DE9F74FAD
:10139000B0F8189019F00808044693460ED00129B9
:1013A0000CBF49F0100949F02009A0F818908BF300
:1013B0001188BFF36F8F03B0BDE8F08FDFF898A1FD
:1013C00009F00709022907D1204605F076F8002820
:1013D000EDD00128238B4DD16769218B002F15DAC1
:1013E000256821F00701C4E9008841F0010121834B
:1013F0000026218B01F007024A4502D0A368002B8A
:1014000059D10DB9002E71D0002355E001F007032A
:101410005A1F012A1FD821F00701062B256889B21F
:10142000C4E900880CD1002D2B4638BF00232BB116
:10143000628B1B6801326283002BF8D141F00201FC
:101440002183204605F039F80028D1D0238B43F0C2
:1014500020032383CCE7042B0AD121F0070189B2B2
:101460002183204605F029F810B141F020012183A5
:101470000025BDE7032809D1226923F00703166878
:1014800043F00603238300252F46B2E7042806D144
:10149000226923F00703566843F00403F2E70528A6
:1014A00006D1226923F00703966843F00503E9E7B4
:1014B00000252E46E8E7012341F0080121838BF344
:1014C0001188BFF36F8F03BB002D34D116B1514685
:1014D0002046B0474FF02003EFF3118B83F31288BF
:1014E000BFF36F8F238B23F008032383238BDA064C
:1014F0002AD523F0100323830121B4F8189009F0B2
:10150000070900297FF45EAF51E7A1680029DBD00D
:101510000B68D1F804B00192002B38BF0023994624
:1015200020463B46D847019AB9F1000FCCD0D9F8F4
:1015300000304946EDE729463B46204601922D689A
:1015400004F0D7FF019ABFE713F020011EBF23F07C
:10155000200323830221D0E71F6500002DE9F04F0F
:101560008FB01F46531E00908B4601934FF0000A28
:10157000019B5878252803F1010422D14FF0000C7B
:1015800018464FF0FF3602306146CDF808C03446A9
:101590004FF00A0E02780190392A00F1010057D865
:1015A0001F2A18D8002A00F0FE81009B59462520EA
:1015B0009847019B59461878009B98470AF1020A00
:1015C000D6E7002800F0EF81009B594698470AF1C2
:1015D000010A0194CCE7A2F12003192BE5D801A55B
:1015E00055F823F04D160000AB150000AB150000B8
:1015F0004D160000AB150000CD160000AB15000025
:10160000AB150000AB150000AB1500000F17000074
:101610004D160000AB15000023170000DB1600007C
:10162000AB150000E71600000317000003170000C9
:101630000317000003170000031700000317000042
:101640000317000003170000031700009446A1E7EA
:10165000582A00F04081A2F16303DDB2172DA4D80F
:10166000172BA2D801A555F823F000BF31190000AF
:1016700049170000AB150000AB150000AB150000CA
:101680002917000049170000AB150000AB1500003A
:1016900029170000AB150000AB150000AB150000CA
:1016A00081180000AB150000AB15000013190000F5
:1016B000AB15000049170000AB150000AB1500008A
:1016C00081180000AB15000029170000009B594647
:1016D000252098470AF1010A4AE7029B03F0FE031E
:1016E0000293002656E7002C0BDA002E0BDA029B41
:1016F000002B00F0548124EAE4740EFB0424303CF7
:1017000048E7002EF7DB0EFB0626303E42E7002EB0
:1017100057F8043B01DB1E463CE71C1EBFF63AAF00
:1017200064420223029335E7682A03D1682906D16F
:1017300048212FE76C2A02D16C2900F03281002960
:101740007FF433AF114625E77A290FD13B68752A1C
:1017500007F10405984640F088804FF00009BCF17D
:10176000200F40F08580924F013C15E06C29EDD0B0
:101770004C29EBD1FD1D25F00705752AF5E80289F6
:10178000EDD0B8F1000F79F10003E8DAD8F10008E4
:10179000884F69EB4909013C0DAB05930023039386
:1017A000039B0493013B0393404649460A220023CE
:1017B000FEF7A6FC059B303203F80129404605934D
:1017C0000A2200234946CDE90689FEF799FCDDE9A6
:1017D0000623002B08BF0A2A80468946E0D2049BD4
:1017E0000EAAC3F1010902EB0308002EA8F10408B8
:1017F00004DA029B13F0010F18BF2646A6EB09037B
:10180000002B0393029BD4BFA4EB0904A41B9A07EB
:1018100040F1AF80AAEB070606EB070A17F8010BA9
:10182000002840F0A880039E013E40F1A880039B61
:101830005A1E0132ACBF1F4600274E46013E40F102
:10184000A38009F1FF320132ACBF4B46002303EB0A
:1018500007092646013E40F19D80631E0133B8BF53
:101860000024A144CA442F4682E64FEAE37988E780
:10187000BCF12B0F0ABF504F504F04F1FF348BE7E0
:10188000702A28D13D4655F8040B00285AD04C4FF9
:101890000021023C02F06002A2F139090DF1340E80
:1018A0004FF0000800F00F03092B88BF4B44303382
:1018B00000290EF8013908BF10284FEA101308F16B
:1018C000FF3C43EA01734FEA11121ED20EABC8F17E
:1018D0000109984489E76C2904D13D46002155F857
:1018E000040B06E04C29F8D1FD1D25F00705F5E8AD
:1018F0000201BCF1230F06D1314B324F12F0200F01
:1019000018BF1F46C5E72D4FC4E7E04618461146ED
:10191000C8E73D4655F8048B404604F046FF002ECC
:10192000814602DBB042A8BFB146244F002665E7DE
:101930003D464FF0010955F8043B8DF820300DF17C
:101940002008F2E7DFF880804FF00509EDE7009B03
:10195000594620209847013EF9D5621E531CACBF62
:1019600021460021C4F10004B8BF00248A44144475
:1019700050E72646EFE7009B594698474CE7009B07
:101980005946302098474FE718F8010B009B5946FD
:10199000984753E7009B5946202098475AE7012370
:1019A000C0E64C21F6E550460FB0BDE8F08F00BF11
:1019B000017D00005C7900005E7900002C8200004F
:1019C00060790000637900006679000008B54FF087
:1019D0002002EFF3118382F31288BFF36F8F00F0C0
:1019E0009BFC034804F05CFD00F062F8FCE700BFDC
:1019F0006C7900000C4B1B6870B573B10B4A15680D
:101A00000022AA4202DB6FF0010070BD1C4613F8F1
:101A1000106B864204D00132F3E76FF00C00F4E75C
:101A20000C600020F1E700BF0C000020787100007E
:101A300070B588B005460C46C0B269461646FFF739
:101A4000D9FF00281FDB009BEBB15A6802929A680D
:101A50002168D8680195CDE903260022CDE9061258
:101A6000059202F025FC0546009804F0E0FD6DB1FA
:101A70002846084901AA04F0CBFF079808B9059B3E
:101A8000236008B070BD6FF01500FAE76FF0120028
:101A9000F7E700BF47670000014802F0F7BD00BF4D
:101AA0007C710000014910220A60704710ED00E0CF
:101AB00072B6404080F31188BFF36F8FBFF34F8F32
:101AC00030BF62B6BFF36F8F704700BF72B6494038
:101AD00081F3118820BF80F3118862B6704700BF80
:101AE00037B505460C46C9B18B680093D1E9002390
:101AF0000E48452104F08EFD63690093D4E9032369
:101B00000B48452104F086FDE2690A48452104F0AE
:101B100081FDA2690848452104F07CFD2146284644
:101B200003B0BDE8304002F0EFBB00BF9579000084
:101B3000C9790000FD790000117A000043B2002B42
:101B400008DB012200F01F0002FA00F05B09024AE4
:101B500042F82300704700BF00E100E0054B420956
:101B600000F01F0053F82220012303FA00F0104078
:101B7000704700BF00E100E043B2002BA8BF03F1B3
:101B8000604301F10101B8BF064B4FEA4111ACBF00
:101B900003F5614300F00F00C9B2B4BF195483F8D4
:101BA0000013704714ED00E030BFFFF7FDBF00BF2A
:101BB000144A08B5144B22F07F029A60BFF34F8F8E
:101BC000BFF36F8FD3F8882022F47002C3F8882007
:101BD000D3F8882042F4A002C3F888204FF0404296
:101BE000C3F83422BFF34F8FBFF36F8F0023E1EEB2
:101BF000103A02F0DFFB02F021FC00F055FA02F08F
:101C0000E3FB00BF0000000000ED00E01EF0040F49
:101C10000CBFEFF30880EFF30980816911F8021C13
:101C20000229FFD001B504F0B1FD01BD10F1160F7E
:101C3000094B0FD0984207D32033834204D98B42FB
:101C400094BF0021012100E000210029034808BFC2
:101C5000002070472033F2E7001000202010002001
:101C60000446084611461A460023E1EE103A084B96
:101C7000202583F3098863B64FF0000383F31188AE
:101C8000BFF36F8FA04785F31188BFF36F8FFEE717
:101C90002038002001B5EFF30580A0F110004FEAD5
:101CA000C0000449014409C99847BDE80140024900
:101CB00008470000F46E0000BD1C0000704700BF24
:101CC0002DE9F0412E4C064688462E484521154602
:101CD00004F0A0FCA26AD70603D52B48452104F0E6
:101CE00099FCA36A180703D52848452104F092FC03
:101CF000234CA36A990721D46FF01507204CA26AE0
:101D0000D30703D52248452104F084FCA36A980632
:101D100003D52048452104F07DFC194B9A6AD10671
:101D200021D49A6A92071ED40020154A936A43F080
:101D3000FF03936200232B70BDE8F0811648452114
:101D400004F068FC676BA36A1A06D5D513483A46B7
:101D5000452104F05FFCB8F1000FCFD0A36A23F057
:101D60008003A362CAE75B681B05DDD531463846B0
:101D7000FFF75CFF0028D7D080F309880220D4E762
:101D800000ED00E0447A00005F7A0000977A0000DE
:101D9000E77A00000B7B0000AF7A0000CC7A0000ED
:101DA00070B5234C06460D462248452104F032FC0E
:101DB000A26AD10403D52048452104F02BFCA36A74
:101DC0001A0503D51D48452104F024FC184CA36ACC
:101DD0009B0510D51A48452104F01CFCA26BA36A90
:101DE000180408D51748452104F014FC1EB1A36A55
:101DF00023F40043A3620E4CA36A590503D512488D
:101E0000452104F007FCA36ADA050BD50F484521EC
:101E100004F000FC064A936A002043F47F43936277
:101E2000287070BDA36A9B04F4D509484521EFE7EB
:101E300000ED00E03F7B00005A7B0000977A000035
:101E4000707B00008E7B0000A87B0000C87B000038
:101E50000B7B000010B51D4C1D48452104F0DAFB3A
:101E6000A26A930103D51B48452104F0D3FBA36A62
:101E7000DC0103D51848452104F0CCFB134CA26AC1
:101E8000100303D51548452104F0C4FBA36A590388
:101E900003D51348452104F0BDFB0C4CA26A920304
:101EA00003D51048452104F0B5FBA36ADB0303D535
:101EB0000D48452104F0AEFB044A936A6FEA0343E0
:101EC0006FEA13439362002010BD00BF00ED00E0F5
:101ED000E57B0000027C00001A7C0000397C0000D9
:101EE0005C7C0000867C0000A57C00002DE9F041B0
:101EF000574BD3F804808AB0C8F30807002686F34E
:101F00001188BFF36F8F02F07F43B3F17F4F07D18A
:101F100002F00C03082B05D14E48452104F07AFB52
:101F2000354604E012074EBF0D4605460126002245
:101F3000F91E8DF807201446092977D8DFE801F04B
:101F4000056B6F687676767676734348452104F0A4
:101F500061FB3F4B8DF80740DC6A14F0020405D0AA
:101F60003E48452104F056FB002406E0DA6A002AC8
:101F70001DDA3B48452104F04DFB9DF807309BB925
:101F80002022294602A804F033FC099B002E5AD0D7
:101F9000C3F3080222B96FEA53236FEA432309937C
:101FA00002A92046FFF79CFD0AB0BDE8F081DB6A7C
:101FB0005B00E2D52B48452104F02CFBAB6933F8DC
:101FC000022C4DF602739A420DD003F1604303F6E2
:101FD00026631B7873B10DF1070201212846FFF734
:101FE0006FFE0446C9E72A681F48452104F012FB2A
:101FF0002C68C2E71D4B1B782BB10DF107010120A6
:10200000FFF7CEFEEDE71A4B1B889BB2002BB4D036
:10201000FFF720FFE5E70DF107020021DEE70DF1F4
:1020200007010020ECE7134845219BE71249134ABA
:10203000134818F4F87F08BF0A46A7F1100345219A
:1020400004F0E8FA90E723F4FF7323F00103A6E716
:1020500000ED00E0037D0000337D00004F7D0000B7
:10206000757D0000887D0000AC7D000029ED00E05A
:102070002AED00E0CD7D0000D57C0000EA7C000068
:10208000F67D0000024A536943F010035361704724
:1020900000ED00E0EFF30880EFF3098101B572462F
:1020A000FFF724FF01BD00BF044800232021C21810
:1020B0000133302B82F80013F9D1704700E100E0C2
:1020C000002080F31488BFF36F8F04F0A5FE00207A
:1020D0000D490860BFF34F8F0C4880F3088800F06B
:1020E00029F8202080F3118809484FF40261401834
:1020F00080F30988EFF314800221084380F31488E9
:10210000BFF36F8FFFF754FD94ED00E0003800201F
:1021100020380020064A11680023C1F30721184621
:102120008B4200D17047936010610133F8E700BF24
:1021300090ED00E008B572B6002383F31388FFF733
:10214000E9FF144B4FF0FF32C3F88020C3F884201E
:10215000C3F88820C3F88C20C3F89020C3F89420DB
:10216000C3F89820C3F89C20C3F88021C3F88421C9
:10217000C3F88821C3F88C21C3F89021C3F89421B7
:10218000C3F89821C3F89C2162B6BFF34F8FBFF309
:102190006F8F08BD00E100E0024B034A03480221B3
:1021A00000F064B8000004200000002084710000EA
:1021B000F8B5224F00268E420FDA4468002C39D041
:1021C0009BB104F1FF3C14EA0C0F08D01C483246C6
:1021D000452104F01FFA6FF015021046F8BD1F2CC0
:1021E000F4D905681CEA050FF0D1202C0568D0F859
:1021F00008C0D2B20FD9B4F1004F0ED8013CB4FAE6
:1022000084F4C4F11F046400072A4CEA040406D9CC
:102210000C484521DDE70824F6E73E24F4E725F0E5
:102220001F05154345F0100544F00104BA60FD6038
:1022300001323C6101360C30BDE700BF90ED00E09B
:10224000127E00003A7E0000034B05225A60BFF365
:102250004F8FBFF36F8F704790ED00E0BFF35F8F3C
:10226000014B00225A60704790ED00E010B5034C1E
:1022700001232278FFF79CFF207010BDFD0F002086
:1022800013490868082810B51ED8FFF7E7FF114C5E
:1022900049680022904201F10C0105D10E4B1870E3
:1022A000FFF7D2FF002010BDA26051F80C3C23F0D4
:1022B0001F03134343F01003E36051F8043C43F061
:1022C000010323610132E5E74FF0FF30EBE700BF88
:1022D0009C71000090ED00E0FD0F0020014B1860A4
:1022E000704700BF100000204FF02003EFF3118271
:1022F00083F31288BFF36F8F06490123C1F840357D
:102300004FF08041C1F8783582F31188BFF36F8FA9
:102310000020704700E001404FF08043C0B2C3F896
:102320001C05BFF34F8F0549054BCA6802F4E062F4
:102330001343CB60BFF34F8F00BFFDE700ED00E01C
:102340000400FA0520B1034B800143F00103184754
:10235000704700BFF07000002DE9F74F314C324F4D
:10236000DFF8D8900025A04694F805B026683046DE
:1023700004F010FDA0B394F806A0BAF1000F14BF4A
:102380004FF4D0504FF4B0504BEA000094F804B032
:10239000C307D6F808E0D6F810C001D580F4406035
:1023A000DCF80030012120F4805201FA0BF1C00763
:1023B0004CBF0B438B43CCF800303046DEF8003086
:1023C000594698470646B0B108EB05150246EB683A
:1023D0001648CDE900B34521EB7904F01BF906E07E
:1023E00032681348452104F015F96FF012063046A3
:1023F00003B0BDE8F08F237A4BB10E4BE268BAF11F
:10240000000F18BF3B464921484604F003F9013547
:102410000E2D04F11004A7D10748492104F0FAF861
:10242000E5E700BFBC710000787E00009E7E0000E2
:10243000897E0000807E0000DE7E0000D07E0000ED
:1024400070B504460D48231A9A100D4B5343DBB266
:102450000C255D4305F140030E461844402104F06D
:10246000E7F9011E04DB074B2B445B68984700210A
:1024700020463346BDE87040184700BF4C0E002090
:10248000B76DDBB6B47200002DE9F0410F4C104D72
:10249000031B9B105D43EBB20C255D43074605F122
:1024A00040000E462044402104F0DBF9011E08DB09
:1024B000084B2C44C4E90E36074B5B59BDE8F0418C
:1024C000184738463346BDE8F04118474C0E002007
:1024D000B76DDBB6CB680000B4720000002270B5A7
:1024E000012104461046FFF747FB0020FFF726FBBB
:1024F0000F4801F083FA0F4B984215D104F0DBFB33
:1025000026690D49304604F028F800280BDB012528
:1025100035642469084904F11C0004F01EF8002801
:1025200001DBE564002070BD6FF00400FBE700BF35
:10253000792500000000AD0BCC72000073B50C23B0
:1025400001460B484B43C418D4E90E5200264033D1
:10255000A6631844019204F0A2F935B1019A054826
:102560002B4602B0BDE87040184702B070BD00BFF6
:102570004C0E00207C6E000010B1012804D0704782
:10258000034B1B6C5B0701D1FFF7D8BF704700BF3F
:102590004C0E002008B54FF02003EFF3118183F3B8
:1025A0001288BFF36F8F124A136843F0020013F0D2
:1025B000010310600CD04FF08042D2F80C34D2F8F6
:1025C0000C2413F0010303D00A4804F068F9012336
:1025D00081F31188BFF36F8F23B1BDE8084000205D
:1025E000FFF7ACBFBDE80840012001F017BA00BFFB
:1025F0009C0E00208C0E0020094BBFF35B8F53E82C
:10260000002F22F0020143E800100028F7D1BFF3A9
:102610005B8FD30702D4012001F032BA704700BFAC
:102620009C0E00202DE9F8433749BFF35B8F064627
:10263000012251E8003F41E800200028F9D1BFF312
:102640005B8F33B9314932484B60CB608A6003F00D
:1026500097FF731E012B32D8012E07D14FF0804314
:10266000D3F81C3403F00303012B28D004F09CFBA7
:10267000044618B9274B1B78002B3ED14FF020039E
:10268000EFF3118583F31288BFF36F8F0124224F7C
:10269000DFF88880DFF888904FF08042D2F8183455
:1026A000D2F81824D2030CD503F00303012B01D078
:1026B000012E06D1DCB185F31188BFF36F8FBDE821
:1026C000F8832846FFF702FA4FF08042D2F8183517
:1026D000002BE1D139680029DED03B603B68012343
:1026E000C2F81835C8F88031C9F80030D4E74FF087
:1026F00080430222C3F80423E1E74FF08043022223
:10270000C3F808230546C2E7A00E00203C0E0020B7
:10271000680E0020FF0F00200401004000E100E0EF
:102720000800004008B5084B0848186004F032FB68
:1027300038B10748FFF7D2FD0548FEF713FE002029
:1027400008BD6FF01200FBE7A40E0020C46E00006D
:10275000552700000A2838B5074D044604D12868DB
:1027600083680D215B68984728688368E1B25B68DD
:102770009847204638BD00BFA40E0020430970B51D
:1027800002D0012B1DD070BD0F4E3369596800294E
:10279000F9D00C6800F01F030125002C05FA03F5A1
:1027A00038BF00248A682A4002D04B6830469847D8
:1027B000002CE8D02368002B38BF002321461C469C
:1027C000F0E7024EE1E700BF946E0000AC6E00003F
:1027D00030B54068047B01F01F05B2F5005F45EAA3
:1027E000441585B04FF0000404D1284601F0EAFBFF
:1027F000002032E0B2F5804FCDE902442FD1B3F58D
:10280000003F0CBF042305238DF80830836823FAAA
:1028100001F1C9072FD4B2F5A03F2CD16A09012AD2
:1028200005F01F031C4A03F5E07318BF4FF0A042E8
:1028300052F82330DB071ED40DF107042146284649
:1028400001F02CFB154B984214D1204601F070FB8F
:10285000134B98420ED06FF00B0005B030BDB3F5AE
:10286000C02F05D0B3F5003F0CBF02230123CBE7F7
:102870000323C9E703940023194602AA284601F05E
:10288000EBF9074B984204D10121284601F056FB91
:10289000AEE76FF00400E0E7000300500400AD0B6A
:1028A0000000AD0B10B501F033FB044668B901F030
:1028B00007FB084B98420AD10748214601F0E8FA85
:1028C000224605210620FFF757F9002010BD6FF0C2
:1028D0000400FBE70000AD0B7D2700002DE9F0436D
:1028E00047683B7B01F01F0585B00E4645EA43155E
:1028F0001446CAB902A9284601F0D0FA044628466F
:1029000001F082FB484B984204D06FF0040005B000
:10291000BDE8F083844205D19DF8080001F002FB78
:10292000A042F2D10020F2E74FF000090DF10301BF
:102930003046CDE9029901F0B1FA4B46804602AA31
:102940004946284601F088F9374B984202D06FF08B
:102950001500DCE7804503D19DF8030001F0E2FAA1
:10296000A3054ED5314B324A234093423AD00CD87E
:10297000062B14D004D893B1022BE8D104230EE027
:10298000B3F5801FE3D1012309E02A4A93422BD0FB
:10299000B3F5A00F2AD0B3F5800FD8D102238DF85C
:1029A000043084F48073C3F30023E0068DF805300F
:1029B00054BFC4F34013032321058DF8063017D507
:1029C0007B68012101FA06F6C3F80865002201A917
:1029D000284601F0EDF9144B984214BF6FF0150032
:1029E000002094E70723DAE70523D8E70323D6E797
:1029F000620541BF7B68012101FA06F6C3F80C6548
:102A0000E4E7E3064FF0000354BFC4F3401403248B
:102A10001A4601A928468DF8044001F01DF9024B21
:102A200098423FF47FAF92E70000AD0B0600F00044
:102A30000600100002004000024B0B6001231360EF
:102A4000704700BFC00E002000487047347300007C
:102A500010B504F09AF9034C206004F092F960601C
:102A6000002010BDC00E00204FF08042D2F810159B
:102A7000D2F8103501F01E0123F01F030B4343F081
:102A80000103C2F81035024B00221A70704700BFD4
:102A9000FE0F00204FF08041D1F8102512F0010008
:102AA0001AD0D1F810050D4B20F01F0002F01E02C5
:102AB0001043C1F81005186858B1D1F8103523F04B
:102AC0001F03134343F00103C1F810356FF08B006F
:102AD0007047034B01221A70704700BF0801004085
:102AE000FE0F00202DE9F0410E46144604F049F98E
:102AF00021460546304603F078FF374690B3B6FBD3
:102B0000F5F305FB136323B9B4FBF5F305FB1340A1
:102B100040B1174823463246452103F07BFD6FF054
:102B2000150016E0A54214D804F02BF9114EDFF879
:102B30004C8005463368082B0DD0384601F060FB09
:102B400098F800300BB1FFF78FFF641B2F44F1D1D1
:102B50002046BDE8F081FFF79DFF0028EDD06FF023
:102B60008B00F6E70448234632464521D5E700BFEF
:102B700048800000300100106C800000FE0F002033
:102B800037B50C46204619460193154603F02DFF34
:102B9000019B40B909482246452103F03BFD6FF0F7
:102BA000150003B030BD33B11A462146284603F064
:102BB0001FFE0020F5E71846F3E700BF6C80000019
:102BC0002DE9F0470E463046194617461C4603F0DD
:102BD0000CFF48B91E4823463246452103F01AFD32
:102BE0006FF01500BDE8F08744EA060515F003050F
:102BF00004D01848234632464521EFE734B3DFF8C6
:102C00005C90DFF85CA024F00304A54205EB060805
:102C100006D1114AD2F80034DB07FBD50020E1E7EA
:102C2000D9F80030082B0AD07959404601F008FB4A
:102C30009AF800300BB1FFF717FF0435E5E7FFF70F
:102C400029FF0028F0D06FF08B00CBE72046C9E7C2
:102C50006C8000008E80000000E001403001001018
:102C6000FE0F0020F0B54B79012B26D0032B21D18C
:102C700010268B79032B1DD1CC790CB1012C19D1E5
:102C80000A7912B1022A15D10E220B684568B3F5F4
:102C9000164F2D6865D02DD8B3F5165F64D016D8C1
:102CA000B3F5966F62D00AD8B3F5967F61D0B3F5CD
:102CB000167F61D06FF0850052E00026D9E7B3F5AA
:102CC000166F5CD0B3F5965FF4D1374B3CE0B3F5AB
:102CD000E14F57D007D8B3F5615F55D0B3F5964FA4
:102CE000E8D1324B30E047F61227BB42E2D14FF435
:102CF000000329E0B3F5613F48D013D8B3F5963F00
:102D000047D009D84DF6C027BB4244D0B3F5614F38
:102D1000D0D14FF46B0317E0B3F5E13FCAD14FF0C8
:102D2000EB7311E0B3F5612F38D008D8204FBB42C8
:102D300037D0B3F5E12FBDD14FF0E86304E01D4F6C
:102D4000BB42B7D14FF08053C5F82435036903C99E
:102D5000344322430433C5F86C2583E80300002084
:102D6000F0BD4FF41D03EFE7134BEDE74FF49E2347
:102D7000EAE74FF4A033E7E74FF41C33E4E74FF4FE
:102D80001D23E1E70D4BDFE70D4BDDE74FF06C73E3
:102D9000DAE70C4BD8E74FF46503D5E74FF07063E3
:102DA000D2E74FF08063CFE700B0130000A04E00E1
:102DB00090D0030040420F000050270000C0750073
:102DC00000F03A0000903A01F8B5066905460F4652
:102DD00003F0EAFF10B9294B1B78A3B94FF0200389
:102DE000EFF3118483F31288BFF36F8F284603F04B
:102DF00084FE00BB84F31188BFF36F8FEEE784F38A
:102E00001188BFF36F8F6424284603F076FE28B93B
:102E1000012003F04EFF013CF6D1F4E74FF0200310
:102E2000EFF3118483F31288BFF36F8F284603F00A
:102E300064FE0028E3D006F8107F69680B68012261
:102E4000C3F84465C3F848250022C3F82021D3F80D
:102E50002001C3F85821D3F858214A68D20641BF4F
:102E60000822C3F800254FF48002C3F8042301228E
:102E70009A6084F31188BFF36F8FF8BDFF0F0020B5
:102E800000F01F0240090128044B02F5E07218BF50
:102E90004FF0A043890043F8221070470003005010
:102EA00000F01F0140090128044B4FF0010218BF38
:102EB0004FF0A0438A40C3F8082570470003005034
:102EC00000F01F0240090128044B02F5E07218BF10
:102ED0004FF0A043032143F8221070470003005035
:102EE0002DE9F0410022064601210220FEF744FEB2
:102EF0000220FEF723FED6F804803769D8F8004098
:102F00000023C4F800353E607568E868421C04D0B0
:102F1000FFF7C6FFE868FFF7D3FF2869431C06D018
:102F20002B7F002B14BF03210021FFF7A9FF686945
:102F3000421C04D0FFF7B4FF6869FFF7C1FFA8691E
:102F4000431C06D06B7F002B14BF03210021FFF729
:102F500097FFD5E903122B68C3F80C15C3F81425A5
:102F6000D5E90512C3F808153169C3F810250431F5
:102F70003046FFF777FE054680B9D8F80430990748
:102F800022D507F1120001F06DF9244B984208D0C8
:102F90002348452103F03EFB6FF004052846BDE8B9
:102FA000F081B87CC30003F1804303F5F83304F1EA
:102FB0000C0204F59071C3F81015C3F81425194AD2
:102FC00001238340C2F804350823C4F8003598F87B
:102FD00008305BB9C4F81031D4F8103107F111038F
:102FE000C4F834350123C4F838352360D8F80430E8
:102FF0009A075CBF4FF48072C4F80423DB0644BF19
:103000004FF48003C4F8043310370023C4F8447528
:10301000C4F848350123A360E360BFE70000AD0BAF
:10302000BB80000000F00140194970B5044622F051
:103030007F460868C1E90023A6F50013101AB3F50E
:10304000400F4FF000050AD2124B19680A060B0A0E
:103050009219114943F10003C1E90023012501F050
:1030600051FAA30003F1804303F58833D3F84025D8
:10307000B2420BD11DB94FF40002C3F84025074BF3
:103080004FF4803000FA04F4C3F8444370BD00BF2D
:1030900040010020D00E0020280100200010014037
:1030A00010B501238340114ABFF35B8FDC4352E824
:1030B000001F01EA040C42E800CEBEF1000FF6D179
:1030C000BFF35B8F4FF4803202FA00F002F18042CE
:1030D00002F58052C2F80803BFF35F8FBFF36F8F12
:1030E0000B4214BF0120002010BD00BFCC0E0020F9
:1030F0000123124ABFF35B8F834052E8001F19433C
:1031000042E8001CBCF1000FF7D1BFF35B8F0C4A03
:103110004FF480338340C2F804330A4BBFF35B8F14
:103120001B68BFF35B8F23FA00F0C30742BF064B57
:103130004FF40032C3F80021704700BFCC0E0020CE
:1031400000100140C80E002000E100E00D4B1B689C
:10315000190A1806BFF35F8F0B4BD3F80435C0185C
:1031600041F10001B3F5801F0AD2084BD3E90023D7
:10317000994208BF904203D210F1807041F10001E2
:10318000704700BFD00E0020001001402801002031
:103190002DE9F04F85B016461F460546FFF780FF24
:1031A0000190FFF7D3FFB94208BFB0427FD2B6EB20
:1031B000000867EB010900234FF080724B4508BF00
:1031C0004245C0F08580444B03EB0513D3E902234D
:1031D0009F4208BF964254D04FEA85094FF4803B86
:1031E00009F1804905F150080BFA05F209F5883913
:1031F0004FEA88081FFA88F80292384AD9F8400541
:1032000026F07F4308F1804808F588381C4693462D
:10321000D2F804A5A0EB0A0020F07F402AF07F41FD
:103220000128C9F8401505D10393132003F0C2FD0E
:103230002A4A039B02990AF1020CA4EB0C0020F02D
:103240007F40B0F5000F88BF64460020C8F800003A
:10325000D8F80000CBF8441324F07F40C9F84005AB
:10326000DBF80405824506D0201A023820F07F40A2
:10327000B0F5000F19D8E41A24F07F44321947F151
:103280000003154C290104EB0510C0E902230E9A36
:103290000F9B625043600024019B13B12846FFF747
:1032A00027FF204605B0BDE8F08F2046B0E7012398
:1032B0000B4ABFF35B8FAB4052E8001F194342E853
:1032C00000100028F8D1BFF35B8F32463B46D8E7A9
:1032D0006FF01504E0E700BF30010020001001404E
:1032E000C80E002073B5194B194D00244FF0FF3064
:1032F0004FF0FF31C5F80845C3E902014FF48033B0
:10330000C5F80433134B02264FF400320121C5F8EF
:1033100004631120C3F880212246FEF72DFC112002
:10332000FEF70CFC0C4A012313600C4A2B6013605F
:103330000B4B0C4A0093019400232046FFF728FF13
:103340003046FFF76FF9204602B070BD3001002013
:103350000010014000E100E008100140CC0E002008
:1033600029300000FFFF7F002DE9F743344CD4F8EB
:1033700004339A0709D5334B1A6832B100221A6018
:10338000314A1B681368013313604FF02003EFF3D9
:10339000118283F31288BFF36F8FD4F80433DB03F9
:1033A00012D5BFF35B8F294B53E8001F21F00100BA
:1033B00043E80006002EF7D1BFF35B8F244B0029B2
:1033C00039D11968002936D1002382F31188BFF35F
:1033D0006F8F6BB3FFF7BAFE06460F464FF0200320
:1033E000EFF3118083F31288BFF36F8F194BD3E98A
:1033F0000289494508BF46454FF0000221BF4FF002
:10340000FF364FF0FF37D3E90015C3E9026723BF4A
:103410001A604FF48033C4F84833114680F31188A2
:10342000BFF36F8F21B1009542464B46002088477D
:1034300003B0BDE8F083002119601B680123C4E7D5
:103440000010014004110140D00E0020C80E0020E1
:103450004011014030010020144B13B5B0F1FF3F83
:1034600008BF1846441E002C1EDD9C42A8BF1C4607
:10347000FFF76CFE0E4B0F49D3E90023801AB0F51D
:10348000000F28BF00240130044408480091844202
:1034900028BF044612194FF00000019043F10003C9
:1034A000FFF776FE02B010BD0024E1E7FFFF7F00CA
:1034B000400100202930000008B5FFF747FE024B0D
:1034C0001B68C01A08BD00BF40010020F0B5284CA1
:1034D000DFF8A0C0236800260CEB03171D01D7F806
:1034E000087817F0FF0F0CD106B123604FF080531E
:1034F0001E69B0FBF6F406FB14045CB16FF0150016
:1035000007E00133072B4FF00106E5D923606FF088
:103510001B00F0BD1E69B1FBF6F406FB1414002C71
:10352000ECD11C695B6963438B42E7D30029E5D08A
:1035300005F1804303F5F0331C46C3F80008C3F8D7
:103540000418C3F80828D3F80058A8420CD1D3F8BF
:103550000438994208D1D4F80838DBB293420CBF42
:1035600000206FF00D00D4E76FF00D00D1E700BF31
:10357000D40E002000E00140034808B5452103F0C7
:1035800049F80020FEF7C8FEF68000008168054A71
:1035900008B51039102303F067F8003818BF012070
:1035A00008BD00BF7073000030B50C46816887B05D
:1035B000102302AA1039054603F03AF8002811DB5F
:1035C000102202A9284603F0C9FA68B10323237028
:1035D000A96801230DF107022839284603F028F8CD
:1035E00000280BDA01202AE01649102202A803F075
:1035F000EFF8002814BF02230123E8E79DF8073005
:1036000003F00F021B096270237101220DF1070103
:10361000284603F0A3FA10B96378042B03D90123D9
:10362000637000232371AA68A11C203A284603F086
:10363000BDFA0028D6D1E11C284603F012FB07B0E2
:1036400030BD00BF707300002DE9F04385B0054622
:103650006946022003F009FB044618B1FF2005B0BB
:10366000BDE8F08302A9052003F0FFFA012838D154
:1036700029482A46492102F0CDFF284B02938DF8B4
:103680000C409DF800509DF808609DF803709DF86F
:103690000B809DF80290224C00222078294603F0EE
:1036A00071FA18B36078314603F06CFAF0B1A37880
:1036B000042B01D0BB4219D1E378042B01D0434540
:1036C00014D12379042B0FD16379022B19D1154A18
:1036D0001548492102F09EFF6079831E022BBED956
:1036E000BCE70028CDD0B9E74B45EDD00132032A25
:1036F00004F10604D1D10D48492102F08BFF0120CD
:10370000ADE7032B05D00A4A0A49042B18BF0A4625
:10371000DEE7094ADCE700BF3B8100000301030349
:10372000AE8100001F8100008681000099810000A9
:10373000188100002981000024810000034B1868D3
:10374000A0F1080358425841704700BF30010010F3
:10375000064B1B68082B06D1054B1B68052B02D8AE
:10376000044AD05C70470020704700BF3001001051
:1037700034010010C6810000024AD2F80034002B48
:10378000FBD0704700E0014010B5FFF7D7FF40B114
:103790004FF080430022C3F80C21C3F81021C3F876
:1037A0003825FFF7CBFF002846D04FF08052614B01
:1037B000D2F80414C3F82015D2F80814C3F824155D
:1037C000D2F80C14C3F82815D2F81014C3F82C152D
:1037D000D2F81414C3F83015D2F81814C3F83415FD
:1037E000D2F81C14C3F84015D2F82014C3F84415BD
:1037F000D2F82414C3F84815D2F82814C3F84C158D
:10380000D2F82C14C3F85015D2F83014C3F854155C
:10381000D2F83414C3F86015D2F83814C3F864151C
:10382000D2F83C14C3F86815D2F84014C3F86C15EC
:10383000D2F84424C3F87025FFF78AFF10B13E4B3D
:103840003E4A1A60FFF784FF18B13D4BFB22C3F8D4
:103850001825FFF77DFF48B13A493B4B0A681B68C2
:1038600022F00F0203F00F0313430B60FFF770FF0A
:1038700018B1364B4FF400721A60FFF75FFF48B182
:103880004FF08043D3F80024D20744BF6FF0010209
:10389000C3F800242E4AD2F8883043F47003C2F8EB
:1038A0008830BFF34F8FBFF36F8F2A4B1B68082BF5
:1038B0000ED1294B1B68052B02D8284AD35C3BB19B
:1038C0004FF01023D3F808224FF08043C3F8582557
:1038D0004FF01023D3F80022002A03DBD3F8043280
:1038E000002B22DA1E490123C1F80435FFF744FFFB
:1038F0004FF010201224C0F80042FFF73DFFC0F83F
:103900000442FFF739FF0023C1F80435FFF734FF05
:10391000BFF34F8F0E49134BCA6802F4E0621343A2
:10392000CB60BFF34F8F00BFFDE70F4B0F4A1A600C
:1039300010BD00BF00C000408C560040488103000D
:1039400000F00040E40E0040580200104096024093
:1039500000ED00E03001001034010010C0810000D3
:1039600000E001400400FA05280000200090D00388
:1039700070B501250368B3FA83F2202AC2F11F044F
:1039800014D0BFF35B8F05FA04F223EA020250E879
:10399000006F9E4204D140E8002CBCF1000FF6D12C
:1039A000BFF35B8FE6D102480C7070BD0148FCE7A5
:1039B0000000AD0B0200AD0B0368CB40DB0710B578
:1039C00015D4012303FA01F10368BFF35B8F41EAC9
:1039D000030250E8004F9C4204D140E8002CBCF1A7
:1039E000000FF6D1BFF35B8FEED1024810BD024845
:1039F000FCE700BF0000AD0B0400AD0B044B1A79CF
:103A000022B9012218609A80024870470248704724
:103A1000D80E00200000AD0B0C00AD0B10B101283A
:103A200020D070474FF08043D3F81824D3F81814EF
:103A300011F4803F194611D002F00302012A0DD182
:103A4000C3F818250C4B00221A601B684FF0804306
:103A50000222C3F8042301229A6070470023C1F8B0
:103A60001835EFE7054B00221A601B684FF08043C2
:103A7000C3F80403186070470401004000010040CF
:103A800038B510B1012818D038BD4FF0804302225C
:103A9000C3F80823184A10601268184A01211160FF
:103AA00042F210751C46D4F81834DB03ECD5012023
:103AB00003F0FFF8013DF6D1E6E7114B4FF08044EB
:103AC0000022C4F808031A601B680E4B42F21075FE
:103AD0001860D4F80C34D4F80C24D20303F001039A
:103AE00005D523B1012003F0E4F8013DF1D1064BE7
:103AF00000225A71C8E700BF040100400C000040DA
:103B00000001004004000040D80E0020164B1A6847
:103B100010B56AB100221A601B684FF08043012281
:103B2000C3F80823114B587910B95A711B6898478C
:103B30000F4B1A6872B100221A601B684FF0804365
:103B4000D3F81824D3F81814920704D10122C3F82B
:103B500018259A6010BD0222C3F80823034BBDE864
:103B600010401B680120184700010040D80E0020BB
:103B700004010040036803F01F025B09012B02608F
:103B8000024818BF4FF0A040704700BF000300502C
:103B900070B500F108030C4C34F81330DA05054613
:103BA0000E4607D5C3F3432304EBC30254F8333066
:103BB00052689847A3682BB1E26831462846BDE8B1
:103BC0007040184770BD00BF2C000020134B083018
:103BD00010B433F81020D1051CD5C2F3432122F4D0
:103BE000F85223F8102003F11004002034F8022BBF
:103BF00012F4807F03D0C2F3432291420AD00130F5
:103C00003028F3D1002243F8312005485DF8044BF9
:103C1000FFF7D2BE5DF8044B704700BF2C000020B8
:103C2000A000002038B50A4C00F1080534F8153022
:103C30009A0606D55B0B074A03F5A273002142F8EA
:103C40002310FFF7C3FF002324F8153038BD00BF51
:103C50002C000020006000402DE9FF41044617467B
:103C60001D4611B34D4E00F1080836F8183003F028
:103C70002203222B03D14A4804B0BDE8F08100237F
:103C8000CDE900338DF80E308DF80F300DF10F02B5
:103C90000B460DF10E0103F018F836F8183023F03A
:103CA000020343F0010326F8183097B13B483E78F1
:103CB0007A6804F1080330F813108F070CD5002A36
:103CC000D9D130F8132022F01C0242EA860220F8F3
:103CD0001320CDBB3348CFE721F02001C904C90C24
:103CE00020F81310002AECD0032EC4D817782EB970
:103CF0002D4A07F5A27142F82160E2E7BA0002F10D
:103D0000804202F5C0424FEA042ED2F810C52CF0D2
:103D1000030CC2F810C5D2F810C52CF44F3C2CF49B
:103D2000407CC2F810C5D2F810C50EF47C5E4CEA97
:103D3000064C41EA47314CEA0E0C41F0200120F8D4
:103D40001310C2F810C5BCE7D5E900672046FFF79D
:103D50003DFF002EBED0114D2B689E4204D16B68F2
:103D60009F4201D100220AE010480DF10F01FFF738
:103D7000FFFD0C4B98427FF47FAF9DF80F2045F874
:103D8000326005EBC20308345F6035F8143043EA53
:103D9000422343F4807325F814309BE72C00002065
:103DA0000400AD0B0000AD0B00600040A00000203F
:103DB000F0B5044685B0154609B300F10807314E49
:103DC00036F81730980701D49A0658D413F01C0F10
:103DD00002D04B78012B52D001238DF80F300023F5
:103DE000CDE900134A1C8B1C20460DF10F0102F097
:103DF0006CFF36F8173043F0030326F8173015B977
:103E0000214805B0F0BD1F4E04F1080736F8170031
:103E1000830734D595F800C06146890020F0200062
:103E200001F18041C00401F5C041C00C26F8170023
:103E30000023C1F810356A78002AE1D0D1F8103596
:103E4000AD7823F4991323F4F853C1F81035D1F861
:103E500010E5230203F47C53120443EA0E0302F438
:103E600040322D05134305F4801540EA4C302B43B6
:103E700040F0200026F81700C1F81035C0E70348CD
:103E8000BFE700BF2C0000200000AD0B0400AD0B0D
:103E9000014BC3E9020170472C0000200830054B9C
:103EA00033F810309A0643BF5B0B03480B7003488E
:103EB000704700BF2C0000200000AD0B0400AD0BCC
:103EC00038B50E4C94F87850B5B96022294604F103
:103ED000100002F098FC0620FDF730FE084B094860
:103EE0001D601B68084B4FF00042C3F804230123F8
:103EF00084F87830636738BD0448FCE72C00002064
:103F00007C6100400000AD0B006000400500AD0B7F
:103F1000034B93F87800003818BF0120704700BFAA
:103F20002C00002001460148FFF746BD9C00002000
:103F300001460148FFF71CBD9C00002037B51F4B10
:103F400000F10802044633F812309A061DD513F02A
:103F500002051AD15B0B9A0002F1804000F5C240C5
:103F600002F1804202F5C04205600068D2F81005F7
:103F700040F00100C2F8100529B1012202FA03F352
:103F80000F4AC2F8043303B030BDC3F38203042BDD
:103F900010D0052B10D001A80194FFF7EBFD019B79
:103FA000D0F81015D94001F001010231204602F08D
:103FB000D3FEE8E70321F9E70221F7E72C00002010
:103FC000006000400E4B00F1080233F812309906F1
:103FD00013D59A0711D45B0B01229A409B00094923
:103FE00003F1804303F5C043C1F80823D3F810253B
:103FF00022F00302C3F810257047002102F0ACBE86
:104000002C000020006000400E4B00F1080213B5A8
:1040100013F81230DB07044611D5FFF7D3FF204613
:10402000FFF700FE01A80194FFF7A4FD019B03F533
:10403000E073022240F82320034802B010BD034879
:10404000FBE700BF2C0000200000AD0B0400AD0B0F
:104050002DE9F04F644B65486549002587B0012282
:104060002C461E6836B1D0F8046316421EBF1C6091
:104070001E68154304338B424FEA4202F1D15D4F73
:104080003B687BB34FF0A0435B4ED3F820250492EE
:10409000C3F82025D6F820350593C6F820350096BC
:1040A0000DF110094FF000084FF0010BD9F8003066
:1040B000F3B908F12008B8F1400F09F10409F5D16E
:1040C0003B603B6800994FF0A043D3F82025049251
:1040D000C3F82025009BD3F820350593C1F820357F
:1040E0001343DDD10124002D66D107B0BDE8F08F68
:1040F00093FAA3F3B3FA83F308EB030606F108027D
:104100003E4B039633F81220C2F38203F408019366
:104110009A4604AB06F007000BFA00FC185D20EA93
:104120000C00185503A89108FFF724FD039C04F523
:10413000E0744B0750F82440C4F3014423D55146A2
:104140003046FFF725FD03A80396FFF713FD039AFA
:1041500002F5E072E4B250F82220C2F30142944228
:1041600007D10021304602F0F7FD2146304602F02B
:10417000F3FD03A80396FFF7FDFC039B0BFA03F383
:10418000C0F8203592E7022C0CBF032102213046F3
:1041900002F0E2FD019B032B04D0022C07D1BAF1FF
:1041A000010FE6D151463046FFF7F2FCE1E7032C60
:1041B000DFD1BAF1020FF4E795FAA5F3B3FA83F36E
:1041C00004FA03F29B0003F1804303F5C04325EAA0
:1041D0000205D3F81005D3F81015C0F30520C1F37C
:1041E0000141FFF7D5FC7EE7006100400060004020
:1041F000206100407C610040000300502C00002042
:104200004FF080531A69B0FBF2F302FB130373B94A
:10421000084B0222C3F80425C3F80805D3F800248C
:10422000D207FBD500220448C3F804257047034891
:10423000704700BF00E001400000AD0B0A00AD0B6D
:10424000074B0122C3F80425D3F80024D207FBD57D
:104250000160BFF35F8F0022C3F80425704700BFE1
:1042600000E0014001460148FFF782BBA8000020A2
:104270000E4B70B553F82040013053F82060A64231
:1042800000D870BDD4E900352846984765B1EB6881
:1042900030B10028B8BF4042FF28A8BFFF201870E7
:1042A0005A7842F001025A700834E8E7807300003F
:1042B00070B5054610B90024204670BD0378002B68
:1042C000F9D00F4A0F4C1646944208D10D4CB44217
:1042D000F1D0204602F05EFD50B91834F7E72046D1
:1042E00002F058FD10B12368AB42E5D01834EBE77B
:1042F0002168284602F060FA0028EED1DCE700BF12
:10430000F46E00007C6E000073B504460D464FF05D
:104310002003EFF3118683F31288BFF36F8F042815
:1043200096BF124B124B53F82030002200924521C9
:104330000246104802F06EF93DB1EB69C3F3080381
:104340001BB10D48452102F065F90C4B0C480022C9
:10435000452102F05FF929462046FFF70DF986F363
:104360001188BFF36F8F02B070BD00BF947300005F
:10437000CC810000DA810000078200002D8200005D
:104380003582000008B5094B012202201A70FFF7A0
:104390006FFF00F021F90320FFF76AFFFCF72CF80C
:1043A000034A137B23F00103137308BDFF0F0020A2
:1043B000480100200248034A0021121A02F023BAE1
:1043C000280100200010002008B5194B83F308884D
:1043D000184C636943F4007363610025E02384F89B
:1043E0002230E57725766576A57684F82050636AD5
:1043F00043F4E023636284F82350FDF743FEFDF7A6
:1044000051FB4FF0FF33A362E362FDF739FFFDF785
:10441000C3FE02F0BEFC2846FFF72AFF0120FFF78B
:1044200027FF05482B462A462946FDF719FC00BF01
:104430004040002000ED00E08543000008B506483C
:10444000064A0749121A02F0D3F9BDE80840054AA6
:104450000549064802F0CCB90000002028010020E0
:10446000D882000000000000D88200000000002078
:10447000034B1B680BB9FFF71FB80020704700BF44
:10448000E00E002030B5036868B10A4A52689042D5
:1044900009D043B1D3E90421D0E90445121945EB11
:1044A0000101C3E90421426813605A600023C0E996
:1044B000003330BDAC000020114B10B51C689C428D
:1044C00008BF0024FFF7D4FFA4B1D4E90423121AD3
:1044D00063EBE073012A73F100010EDB10466FF00D
:1044E0000042194682424FF0000373EB010400DAE8
:1044F000104610BD6FF00040FBE70020F9E700BF59
:10450000AC0000202DE9F74F4FF02003EFF31184AA
:1045100083F31288BFF36F8F2C4DDFF8B4A0DFF860
:10452000B4B028605146D5F800C0DBF80000624600
:10453000D3175845DAE90089CDE900230DD060B1E1
:10454000D0E90467B445BB411EDA009BB6EB030C0F
:10455000019B67EB0306C0E904C6009B13EB08024E
:10456000019B4FF0000643EB0903C1E900232E60D5
:10457000FFF7A2FF3146FEF76FFF84F31188BFF308
:104580006F8F03B0BDE8F08F18EB06084FF0000204
:104590004FF0000349EBE679C0E90423ACEB0606D3
:1045A000CAE900892E60FFF76DFF84F31188BFF31D
:1045B0006F8F836898474FF02003EFF3118483F3E4
:1045C0001288BFF36F8F0249ADE700BFE00E0020F5
:1045D000C8010020AC000020024A0349034801F052
:1045E0005FBF00BF2C8200009F820000AE820000EF
:1045F00010B50A4C23681BB101232360002010BDB5
:1046000000F056F80028F7D00138062803D8044BEC
:1046100053F8200010BD034810BD00BFE40E002079
:10462000A8730000FE8FFFFFBFF34F8F0549064BB5
:10463000CA6802F4E0621343CB60BFF34F8F00BF40
:10464000FDE700BF00ED00E00400FA05F0B4094FFB
:10465000094E0A4C0A4A0B4D0B494FF0FE333B60A2
:1046600052683360236000242B60C1F80045F0BC21
:10467000104700BF00B4025004B4025008B4025006
:10468000B40000200CB4025000A00250D0E9001287
:10469000014BC3E900127047B400002038B131B1BA
:1046A000014400220346013088421A70FAD1704753
:1046B00010B500F033F820B1032400F067F820466D
:1046C00010BD00F035F890B900F0B0F890B90F4B7C
:1046D0001B681B0EF02B08D10D4A0E4B12689A4234
:1046E0000AD0072400F01CF8E7E70624FAE70424C0
:1046F000204610BD0024F5E7012000F097F804469D
:104700000028F7D1044B1860D9E700BF28B9025040
:1047100024BA02500000E0200CBA0250002070477A
:1047200000207047014B1860704700BF04BA025068
:1047300010B5114800F048F800B110BD0F4800F066
:1047400043F80028F9D10E4C204600F03DF800282F
:10475000F3D10C4B0C481C6000F036F801460028E1
:10476000EBD100F02DF8044608B1204610BD00F052
:104770003FF82046FAE700BFC8000020BC00002038
:10478000C4000020CC000020C000002008B508486C
:1047900000F024F8074800F021F8074800F01EF860
:1047A000064800F01BF8BDE8084000F00BB800BF59
:1047B000C8000020BC000020C4000020C000002071
:1047C00000207047704700BF08B5034B02681B68A4
:1047D00010689847002008BDD800002008B5034B9A
:1047E00002685B6810689847002008BDD800002068
:1047F00070B5094C094D2069AB68984718B1084B52
:1048000008485B689847084AEB68206900211160F6
:10481000BDE87040184700BFE8000020D800002025
:10482000B4000020C4730000E80E002070B51A4DDB
:104830001A4E0446B26828699047F0B95CB1184C2A
:104840002368ABB1012B1AD0013B23602869F368C0
:104850009847002070BD124C216839B9114B124A9B
:104860000120C3F800051368002BFCD10131216041
:10487000F36828699847002070BD0C4870BD0A4A4B
:104880001368002BFCD1074A6FF07E40C2F8003558
:10489000FFF748FF2368D7E7E8000020D800002092
:1048A000E80E002000A0025010B90250E98FFFFF6F
:1048B00010B5044630B16368DB0602D500232360DF
:1048C000636010BD024B03485B689847F3E700BF85
:1048D000B4000020E473000068B143683BB1DB061C
:1048E00007D5BFF35F8F0023036018467047034866
:1048F0007047034870476FF4E0407047EA8FFFFF4E
:10490000E98FFFFF10B5044620B100221123226079
:10491000636010BD0148FFF799FEF6E70C740000D4
:10492000C0B14368A3B1DB0610D50122BFF35B8F92
:1049300050E8003F40E800210029F9D1BFF35B8F28
:10494000012BF3D0BFF35F8F0020704703487047FF
:10495000034870476FF4E040704700BFE98FFFFFE6
:10496000EA8FFFFF30B10268034B04489A4208BF48
:104970000020704702487047DD55AABB8208F0004E
:104980007108F00038B50D460446B0B1A0220021F0
:10499000043002F02DFA95B10822294604F1640092
:1049A00002F02CFA082205F1200104F1840002F043
:1049B00025FA044B2360002038BD0348FCE7034878
:1049C000FAE700BFDD55AABB7108F0008308F000CC
:1049D0002DE9F74305460E4699461146FFF7C2FFFB
:1049E0000446002840F08480002E00F085800029D5
:1049F00000F08480B9F1200F40F0828005F144047A
:104A0000082205F10408204602F0F8F905F1240710
:104A100008223146404602F0F1F906F12001082251
:104A2000384602F0EBF902A94FF4807041F8049D7A
:104A300002F0D8F9002865D1334A4FF4807313602F
:104A4000012193600823314A00F02EFB0121084622
:104A500005232F4A00F028FB0823424601211C2091
:104A600000F022FB08233A460121032000F01CFB42
:104A7000224608230121022000F016FB0823254AC4
:104A800001211A2000F010FB0523234A01211B20DD
:104A900000F00AFB0823214A0121142000F004FB46
:104AA00008231F4A0121152000F0FEFA082305F112
:104AB00064020121162000F0F7FA082305F18402B0
:104AC0000121172000F0F0FA0823164A01210B20DB
:104AD00000F0EAFA00F044FB0446019800F0D2FA34
:104AE000114B002C18BF1C46A421284602F082F965
:104AF000204603B0BDE8F0830C4CF9E70C4CF7E717
:104B00000C4CF5E7084CEFE790B0025070740000D1
:104B1000E874000030740000D47400009474000045
:104B2000B4740000507400008408F0007608F000AF
:104B30008008F0008108F0000C4BC2691A6082699D
:104B400043F8042C426943F8082C026943F80C2C02
:104B5000C26843F8102C826843F8142C426843F86A
:104B6000182C026843F81C2C704700BF5CB602503A
:104B70000C4B1B68C3610C4B1B6883610B4B1B68A0
:104B800043610B4B1B6803610A4B1B68C3600A4BF4
:104B90001B688360094B1B684360094B1B680360FB
:104BA000704700BF5CB6025058B6025054B602506F
:104BB00050B602504CB6025048B6025044B60250AD
:104BC00040B6025030B10268034B04489A4208BF15
:104BD0000020704702487047DD55AABB0202F00072
:104BE0000002F00038B5044668B1051D7021284662
:104BF00002F000F928462022044902F0F7F8044B9D
:104C00002360002038BD0348FCE700BFFC740000AF
:104C1000DD55AABB0002F0002DE9F043284B044605
:104C20000E4615460FCB85B06F4687E80F002DB9AD
:104C30004FF00009484605B0BDE8F0832046FFF775
:104C4000C1FF81460028F5D1231D0193636AA3BBF0
:104C5000236F8BB1C3F14008A84528BFA84604F1D3
:104C6000300031461844424602F0C0F8236F4344F6
:104C700046442367A5EB0805226F402A06D104F1BC
:104C80003001384600F0AEFB0023236705F03F08F3
:104C900035F03F0505D031462A46384600F0A2FBE4
:104CA0002E44B8F1000FC3D04246314604F1300023
:104CB00002F09CF8C4F87080BCE7DFF80890B9E710
:104CC000E07000000C02F0002DE9FF41144B044697
:104CD0000E460FCB6F4687E80F002046FFF772FFA6
:104CE0008046B0B9CEB1636A251D01953BB9012359
:104CF0006362226F04F13001384600F073FB2B46EB
:104D0000043E243453F8042B12BAA34246F8042F6D
:104D1000F8D1404604B0BDE8F081DFF80880F8E73C
:104D2000E07000000502F000084B1B681B0EF02B22
:104D300008D1074B1A68074B9A4205D1064B002051
:104D400018607047052070470620704728B9025048
:104D500024BA02500000E0200CBA0250002230B504
:104D600049001346023840F6FC7502F1A05404F5E0
:104D70002C44A400904202F10102CABF23602560C6
:104D80005B181E2AF1D1044A13600B445360034B95
:104D9000034A1A6030BD00BF78B0025084B00250A0
:104DA00020F80F0030B51E4B85B01A4619680091E7
:104DB0000099CC07FAD500F1A05000F52C408000F6
:104DC000016813680193019BD807FAD5154B164C5F
:104DD0001868164D1F30202390FBF3F0013800288F
:104DE00010DA00230130400153B1A0F120014FF04F
:104DF0000042134204D1013888424FEA5202F8D1EE
:104E000005B030BD13680393039BDB07FAD5431845
:104E100023602B680293029B002BE3D10138DEE76D
:104E2000B4B00250ACB00250E4B00250DCB002505A
:104E3000F0B51D6885B001F01F040DB91F2C25D1F8
:104E4000154D2E462F680197019FFF07FAD500F1F7
:104E5000A05000F52C408000006835680395039D44
:104E6000ED07FAD50D4D00EB611028600C48006885
:104E700002901F2C18BFC94302980FBF106001F0A9
:104E80001F0100FA01F11160002119601068430050
:104E9000C00F136005B0F0BDB4B00250E4B00250D2
:104EA000DCB002500C4B18603F3020F03F0089010D
:104EB000403058609960D9601961596199611C331B
:104EC0000648196082B002680192019AD207FAD5A9
:104ED000196002B0704700BF90B00250B4B00250E9
:104EE00038B5A0F12003B3F5426F05462CD88F28C2
:104EF00026D800F1470300F16604DB064FEA54149C
:104F000000D0013464013F34A409013411B1A1423D
:104F10001AD30C46E3004FF48050B0FBF3F0202886
:104F200028BF202002B11060084B01221A602146E0
:104F3000FFF714FF28462146FFF7B4FF002038BDD5
:104F400000F11F046409DDE70148F8E71CB80250CE
:104F50002221F000F0B5454B89B01D461C68019434
:104F6000019CE407FAD5424BDFF80CE1DFF80CC1F5
:104F700013449B0000241A680B181E2B88BFC0F135
:104F80001E011F320B1852095343B3F5806F82BFC5
:104F90004FF48061B1FBF2F1091A00F1A05000F565
:104FA0002C402746A14233DC2B680493049BDB078B
:104FB000FAD5304B1B68296805910599CF07FAD5BA
:104FC0002D4C2E49236000231E46934203F101001D
:104FD00040D120F001022948194600268A423CD8D7
:104FE000296806910699CE07FAD5254909682868E7
:104FF00007900798C007FAD52160204800210C4689
:105000008B422DD11D4900209A422CD809B0F0BD09
:105010002B680293029BDB07FAD503199B001B68E0
:105020002E680396039EF607FAD5CEF800300023CB
:10503000934203F1010306D1164623F00103B34264
:1050400004D80134AEE7CCF80070F1E7CCF800707A
:105050000136F4E70E600346B7E706600131BDE7AD
:1050600004600131CCE708600133CDE7B4B00250F1
:1050700024AC00147CB00250D4B00250D8B002501E
:1050800078B0025008B540B1202801464FF0070221
:1050900028BF20210020FFF75DFF024B00221A608D
:1050A00008BD00BF1CB80250F0B5294D85B02C4694
:1050B0002E680096009EF607FAD500F1A05000F584
:1050C0002C4080000568206801900198C707FAD538
:1050D0002048214F056002EB8306B24229D15A1CB9
:1050E0001D4E22F0010200279A4227D8236802931E
:1050F000029BDE07FAD5194B0B449B001B681F333C
:105100005B099A4213D2216803910399C907FAD522
:10511000154400219B1A104A056008468B4210D89E
:105120005A1C0D4922F0010200209A420CD805B009
:10513000F0BD52F804CBC7F800C0CEE737600133AA
:10514000D2E710600131E9E708600133EDE700BF05
:10515000B4B00250D4B00250D8B0025024AC001405
:105160002DE9F041814B1D6898682033A0B01E46A0
:105170001A680192019AD707FAD57D4B7D4A1A60C9
:1051800032680292029AD407FAD57B4A1A607B4AA7
:105190001446116803910399C907FAD5784A116832
:1051A000C1F3402137680497049FFF07FAD5754F74
:1051B0001F6027680597059FFF07FAD51768002924
:1051C00000F0CF80B90540F1CC8031680691069996
:1051D000CF07FAD56C491960216807910799C9076B
:1051E000FAD51168C1F3402137680897089FFF0777
:1051F000FAD5664F1F6027680997099FFF07FAD500
:105200001268002900F0AF80910540F1AC8032684F
:105210000A920A9AD207FAD5564A1A6032680B9255
:105220000B9AD707FAD55A4A1A6031680C910C9933
:10523000CC07FAD55749196031680D910D99C90706
:10524000FAD55549196031680E910E99CF07FAD5F4
:105250005249196031680F910F99CC07FAD550491E
:105260001960504B1E46196810911099C907FAD55C
:105270003F4C4D4B236033681193119BDB07FAD5EC
:105280004A4B236033681293129BDF07FAD5484BD1
:1052900023603A4B9846196813911399C907FAD5B8
:1052A000324F386033681493149BDB07FAD52260C1
:1052B00033681593159BD807FAD53E4B23603368A6
:1052C0001693169BD907FAD53B4B23603368179387
:1052D000179BDA07FAD5394B236033681893189B6C
:1052E000DB07FAD5364B236033681993199BD8072F
:1052F000FAD5344B236033681A931A9BD907FAD531
:10530000314B236033681B931B9BDA07FAD52F4B75
:10531000236000F01DFC08BBD8F800301C931C9BD8
:10532000DB07F9D53D6033681D931D9BD907FAD57E
:10533000274B236033681E931E9BDA07FAD5254B53
:105340002360D8F800301F931F9BDB07F9D50C4B67
:105350001B6813F4805F204B08BF184620B0BDE8DF
:10536000F0811E48FAE71E48F8E700BF90B00250EF
:1053700080B0025000100251C01F7229B4B0025018
:1053800088B00250C0CF0129C01F0E29C03F00299C
:1053900040010249003184A800001649400108A1DB
:1053A00080440888B0B00250C044708880077A41B9
:1053B000C0077E4100006A498006164940006E49D8
:1053C00000020021008220214082202180822421AD
:1053D00040A161A100C861510308F1000108F1007A
:1053E0000208F1002DE9F74F314B446880469246A0
:1053F00099461A68002AFCD12E4B9B461A68002A4F
:10540000FCD14FF0FF30019100F094FC802000F0BF
:1054100097FC294D294A2A4F2A4E012307202B6049
:10542000A2F59E72C2F83C011360636A3B60A36AF6
:105430003360D8F8003042F8043CD8F808302046F1
:1054400098470199D9F80030002BFBD1BAF1000F31
:1054500020D11D4B04221A60D9F80030002BFBD15B
:10546000DBF800A0BAF1000FFAD1D8F80C302046D2
:1054700098473B6863623368A362144BC3F800A08B
:10548000C3F844A1D9F80030002BFBD12B6003B046
:10549000BDE8F08F236A012B04BF0C4A13600C4B4C
:1054A00040201960C3F804A000F050FCD4E700BF0E
:1054B00010B9025020BC025018B8025000B9025076
:1054C000CCB70250D0B70250C8B7025084B60250D1
:1054D00028BC025010B5544B98B019461A68019276
:1054E000019AD207FAD5514B514A1A600A680292C2
:1054F000029AD407FAD54F4A1A600A680392039AAF
:10550000D007FAD54C4818600A680492049AD2076A
:10551000FAD54A4A1A600A680592059AD407FAD55C
:10552000474A1A600A680692069AD207FAD5454A8F
:105530001A600A680792079AD407FAD5424A1A6095
:105540000A680892089AD207FAD5404A1A600A688F
:105550000992099AD407FAD53D4A1A600A680A9254
:105560000A9AD207FAD53B4A1A600A680B920B9A3C
:10557000D407FAD5384A1A600A680C920C9AD207F6
:10558000FAD5364A1A600A680D920D9AD407FAD5F0
:10559000334A1A600A680E920E9AD207FAD5314A37
:1055A0001A600A680F920F9AD407FAD52E4A1A6029
:1055B0000A681092109AD207FAD52C4A1A601A4B30
:1055C00019461C681194119CE407FAD5174B186012
:1055D000086812901298C407FAD51A600A681392E4
:1055E000139AD007FAD5124A1A600A681492149ACC
:1055F000D207FAD51E4A1A600A681592159AD4077E
:10560000FAD51C4A1A600A681692169AD007FAD57B
:10561000194A1A600A681792179AD207FAD5174AD8
:105620001A6018B010BD00BFB0B0025080B0025078
:1056300000936521000431904096659000836121BC
:1056400000C3302100C364900081619000461021A6
:10565000008111210041442100C320290C4610C8BB
:105660000086312100C3602140C128294096652170
:105670000013319040962529594614C840043249F8
:1056800010B5494B94B019461A680092009AD20797
:10569000FAD5464B464A1A600A680192019AD40725
:1056A000FAD5444A1A600A680292029AD007FAD5DB
:1056B000414818600A680392039AD207FAD53F4A14
:1056C0001A600A680492049AD407FAD53C4A1A6010
:1056D0000A680592059AD207FAD53A4A1A600A680A
:1056E0000692069AD407FAD5374A1A600A680792D2
:1056F000079AD207FAD5354A1A600A680892089ABA
:10570000D407FAD5324A1A600A680992099AD20770
:10571000FAD5304A1A600A680A920A9AD407FAD56A
:105720002D4A1A600A680B920B9AD207FAD52B4AB7
:105730001A600A680C920C9AD407FAD5284A1A60A3
:105740000A680D920D9AD207FAD5264A1A600A689D
:105750000E920E9AD407FAD5234A1A600A680F925D
:105760000F9AD207FAD5214A1A600F4B19461C68C6
:105770001094109CE407FAD50C4B1860086811903F
:105780001198C407FAD51A600A681292129AD007C3
:10579000FAD5174A1A600A681392139AD207FAD5F3
:1057A000144A1A6014B010BDB0B0025080B002505C
:1057B0008090652100040990409665908080612169
:1057C0008020082180206490008161900046102193
:1057D000008111210041442180202029024610C867
:1057E00000860921802060214021282940966521DA
:1057F00040962529594614C810B5504B96B01C4602
:105800001A680192019AD207FAD54D4B4D4A1A6097
:1058100022680292029AD207FAD54B4A1A604B4A82
:1058200042EA804022680392039AD207FAD51860B0
:1058300022680492049AD007FAD5454A1A60A2F564
:10584000800242EA814122680592059AD207FAD580
:10585000196022680692069AD007FAD53D4A1A6066
:1058600022680792079AD107FAD53B4A1A60226844
:105870000892089AD207FAD5384A1A602268099223
:10588000099AD007FAD5364A1A6022680A920A9A0B
:10589000D107FAD5334A1A6022680B920B9AD207C5
:1058A000FAD5314A1A6022680C920C9AD007FAD5C0
:1058B0002E4A1A6022680D920D9AD107FAD52C4A09
:1058C0001A6022680E920E9AD207FAD5294A1A60F7
:1058D00022680F920F9AD007FAD5274A1A602168DA
:1058E00010911099C907FAD51A60144B1A46196815
:1058F00011911199C807FAD5114B20491960116807
:1059000012911299C907FAD51D49196011681391AE
:105910001399CC07FAD50B491960116814911499A1
:10592000C807FAD517491960116815911599C90763
:10593000FAD5154A1A6016B010BD00BFB0B00250BB
:1059400080B002504004419000862929D81001C837
:1059500040144190401421294014652100344090A6
:1059600000310C90C0400C90C030202940960D9022
:1059700000416090031645C8008611210041602156
:10598000594644C84014459040142D9070B526489F
:1059900088B0054604680094009CE607FAD52348C1
:1059A000234C0460234C44EA83432C680194019CFB
:1059B000E407FAD50360930143EA824242F01044BF
:1059C00044F4C0442B680293029BDE07FAD50460BE
:1059D0002B680393039BDB07FAD5174B03608B01FE
:1059E00043EA814141F0104343F4C0432E680496DA
:1059F000049EF607FAD503602B680593059BDE0726
:105A0000FAD5046041F058412B680693069BDC07E9
:105A1000FAD5016042F058422B680793079BDB07D9
:105A2000FAD5026008B070BDB0B0025080B002502C
:105A3000C02102298071009880611890354B8EB08A
:105A400019461A680092009AD207FAD5324B334AA7
:105A50001A600A680192019AD007FAD5304A1A6092
:105A60000A680292029AD207FAD52E4A1A600A6888
:105A70000392039AD007FAD52B4A1A600A68049257
:105A8000049AD207FAD5294A1A600A680592059A3B
:105A9000D007FAD5264A1A600A680692069AD207F3
:105AA000FAD5244A1A600A680792079AD007FAD5ED
:105AB000214A1A600A680892089AD207FAD51F4A42
:105AC0001A600A680992099AD007FAD51C4A1A6026
:105AD0000A680A920A9AD207FAD51A4A1A6008681E
