:020000021000EC
:10000000C83D012099430100CDFE01006D43010070
:100010006D4301006D4301006D4301006D4301001C
:100020000000000000000000000000000D3E010084
:100030006D43010000000000B13D01006D4301006F
:100040008D3E01008D3E01008D3E01008D3E010080
:100050008D3E01008D3E01008D3E01008D3E010070
:100060008D3E01008D3E01008D3E01008D3E010060
:100070008D3E01008D3E01008D3E01008D3E010050
:100080008D3E01008D3E01008D3E01008D3E010040
:100090008D3E01008D3E01008D3E01008D3E010030
:1000A0008D3E01008D3E01008D3E01008D3E010020
:1000B0000D5901008D3E01008D3E01008D3E010075
:1000C0008D3E01008D3E01008D3E01008D3E010000
:1000D0008D3E01008D3E01008D3E01008D3E0100F0
:1000E0008D3E01008D3E01008D3E01008D3E0100E0
:1000F0008D3E01008D3E01008D3E01008D3E0100D0
:100100008D3E01008D3E01008D3E01008D3E0100BF
:100110008D3E01008D3E01008D3E01008D3E0100AF
:100120008D3E01008D3E01008D3E01008D3E01009F
:100130008D3E01008D3E01008D3E01008D3E01008F
:100140008D3E0100000000000000000000000000E3
:10015000000000000000000000000000000000009F
:10016000000000000000000000000000000000008F
:10017000000000000000000000000000000000007F
:10018000000000000000000000000000000000006F
:10019000000000000000000000000000000000005F
:1001A000000000000000000000000000000000004F
:1001B000000000000000000000000000000000003F
:1001C000000000000000000000000000000000002F
:1001D000000000000000000000000000000000001F
:1001E000000000000000000000000000000000000F
:1001F00000000000000000000000000000000000FF
:10020000DEE61E284CBBCE8F025B00003C000000E7
:100210003058010001000000000001000000010052
:10022000FFFF02910000000000000000000000003D
:0C023000000000000000000000000000C2
:04023C00FFFFFFFFC2
:100240004FF0FF0C1CEAD0521EBF1CEAD15392EAB9
:100250000C0F93EA0C0F6FD01A4480EA010C400295
:1002600018BF5FEA41211ED04FF0006343EA5010EF
:1002700043EA5111A0FB01310CF00040B1F5000F31
:100280003EBF490041EAD3715B0040EA010062F1E0
:100290007F02FD2A1DD8B3F1004F40EBC25008BFCA
:1002A00020F00100704790F0000F0CF0004C08BFE8
:1002B00049024CEA502040EA51207F3AC2BFD2F1B5
:1002C000FF0340EAC250704740F400004FF00003C3
:1002D000013A5DDC12F1190FDCBF00F000407047FD
:1002E000C2F10002410021FA02F1C2F1200200FA3B
:1002F00002FC5FEA310040F1000053EA4C0308BF02
:1003000020EADC70704792F0000F00F0004C02BF52
:10031000400010F4000F013AF9D040EA0C0093F0CD
:10032000000F01F0004C02BF490011F4000F013B27
:10033000F9D041EA0C018FE70CEAD15392EA0C0F95
:1003400018BF93EA0C0F0AD030F0004C18BF31F000
:10035000004CD8D180EA010000F00040704790F0D6
:10036000000F17BF90F0004F084691F0000F91F07A
:10037000004F14D092EA0C0F01D142020FD193EA40
:100380000C0F03D14B0218BF084608D180EA0100C8
:1003900000F0004040F0FE4040F40000704740F0A4
:1003A000FE4040F44000704781F0004102E000BF91
:1003B00083F0004330B54FEA41044FEA430594EA25
:1003C000050F08BF90EA020F1FBF54EA000C55EA60
:1003D000020C7FEA645C7FEA655C00F0E2804FEA31
:1003E0005454D4EB5555B8BF6D420CDD2C4480EA13
:1003F000020281EA030382EA000083EA010180EA43
:10040000020281EA0303362D88BF30BD11F0004F90
:100410004FEA01314FF4801C4CEA113102D04042C6
:1004200061EB410113F0004F4FEA03334CEA133301
:1004300002D0524263EB430394EA050F00F0A78019
:10044000A4F10104D5F1200E0DDB02FA0EFC22FA14
:1004500005F2801841F1000103FA0EF2801843FA08
:1004600005F359410EE0A5F120050EF1200E012AF9
:1004700003FA0EFC28BF4CF0020C43FA05F3C01837
:1004800051EBE37101F0004507D54FF0000EDCF1B0
:10049000000C7EEB00006EEB0101B1F5801F1BD359
:1004A000B1F5001F0CD349085FEA30004FEA3C0C5D
:1004B00004F101044FEA445212F5800F80F09A8053
:1004C000BCF1004F08BF5FEA500C50F1000041EB57
:1004D000045141EA050130BD5FEA4C0C404141EB5B
:1004E0000101013C28BFB1F5801FE9D291F0000F56
:1004F00004BF01460020B1FA81F308BF2033A3F105
:100500000B03B3F120020CDA0C3208DD02F1140CFB
:10051000C2F10C0201FA0CF021FA02F10CE002F136
:100520001402D8BFC2F1200C01FA02F120FA0CFC2F
:10053000DCBF41EA0C019040E41AA2BF01EB045178
:10054000294330BD6FEA04041F3C1CDA0C340EDC76
:1005500004F11404C4F1200220FA04F001FA02F3B9
:1005600040EA030021FA04F345EA030130BDC4F177
:100570000C04C4F1200220FA02F001FA04F340EA6C
:100580000300294630BD21FA04F0294630BD94F01D
:10059000000F83F4801306BF81F480110134013D04
:1005A0004EE77FEA645C18BF7FEA655C29D094EA75
:1005B000050F08BF90EA020F05D054EA000C04BFF3
:1005C0001946104630BD91EA030F1EBF00210020DE
:1005D00030BD5FEA545C05D14000494128BF41F07D
:1005E000004130BD14F580043CBF01F5801130BDE1
:1005F00001F0004545F0FE4141F470014FF000006C
:1006000030BD7FEA645C1ABF194610467FEA655C1C
:100610001CBF0B46024650EA013406BF52EA0335BE
:1006200091EA030F41F4002130BD00BF90F0000FAC
:1006300004BF0021704730B54FF4806404F13204E8
:100640004FF000054FF0000150E700BF90F0000FA1
:1006500004BF0021704730B54FF4806404F13204C8
:1006600010F0004548BF40424FF000013EE700BF98
:1006700042004FEAE2014FEA31014FEA02701FBF28
:1006800012F07F4393F07F4F81F06051704732F05A
:100690007F4208BF704793F07F4F04BF41F40021B1
:1006A000704730B54FF4607401F0004521F000410F
:1006B0001CE700BF50EA010208BF704730B54FF099
:1006C00000050AE050EA010208BF704730B511F09A
:1006D000004502D5404261EB41014FF4806404F1D2
:1006E00032045FEA915C3FF4D8AE4FF003025FEA58
:1006F000DC0C18BF03325FEADC0C18BF033202EBDC
:10070000DC02C2F1200300FA03FC20FA02F001FA35
:1007100003FE40EA0E0021FA02F11444BDE600BFD8
:1007200070B54FF0FF0C4CF4E06C1CEA11541DBF87
:100730001CEA135594EA0C0F95EA0C0F00F0DEF852
:100740002C4481EA030621EA4C5123EA4C5350EA37
:10075000013518BF52EA033541F4801143F4801388
:1007600038D0A0FB02CE4FF00005E1FB02E506F019
:100770000042E0FB03E54FF00006E1FB03569CF06E
:10078000000F18BF4EF0010EA4F1FF04B6F5007F74
:1007900064F5407404D25FEA4E0E6D4146EB0606E6
:1007A00042EAC62141EA55514FEAC52040EA5E506F
:1007B0004FEACE2EB4F1FD0C88BFBCF5E06F1ED819
:1007C000BEF1004F08BF5FEA500E50F1000041EB50
:1007D000045170BD06F0004646EA010140EA0200FD
:1007E00081EA0301B4EB5C04C2BFD4EB0C0541EA1F
:1007F000045170BD41F480114FF0000E013C00F334
:10080000AB8014F1360FDEBF002001F0004170BD57
:10081000C4F10004203C35DA0C341BDC04F1140470
:10082000C4F1200500FA05F320FA04F001FA05F2FC
:1008300040EA020001F0004221F0004110EBD370C9
:1008400021FA04F642EB06015EEA430E08BF20EAF5
:10085000D37070BDC4F10C04C4F1200500FA04F398
:1008600020FA05F001FA04F240EA020001F000412A
:1008700010EBD37041F100015EEA430E08BF20EA9D
:10088000D37070BDC4F1200500FA05F24EEA020EE5
:1008900020FA04F301FA05F243EA020321FA04F014
:1008A00001F0004121FA04F220EA020000EBD370CB
:1008B0005EEA430E08BF20EAD37070BD94F0000FCB
:1008C0000FD101F00046400041EB010111F4801FFF
:1008D00008BF013CF7D041EA060195F0000F18BFB0
:1008E000704703F00046520043EB030313F4801FEC
:1008F00008BF013DF7D043EA0603704794EA0C0FA6
:100900000CEA135518BF95EA0C0F0CD050EA4106BB
:1009100018BF52EA4306D1D181EA030101F0004138
:100920004FF0000070BD50EA410606BF1046194660
:1009300052EA430619D094EA0C0F02D150EA01366C
:1009400013D195EA0C0F05D152EA03361CBF1046AD
:1009500019460AD181EA030101F0004141F0FE414C
:1009600041F470014FF0000070BD41F0FE4141F4D0
:10097000780170BD70B54FF0FF0C4CF4E06C1CEAD0
:1009800011541DBF1CEA135594EA0C0F95EA0C0F85
:1009900000F0A7F8A4EB050481EA030E52EA033540
:1009A0004FEA013100F088804FEA03334FF0805561
:1009B00045EA131343EA12634FEA022245EA11158E
:1009C00045EA10654FEA00260EF000419D4208BF3F
:1009D000964244F1FD0404F5407402D25B084FEAEC
:1009E0003202B61A65EB03055B084FEA32024FF498
:1009F00080104FF4002CB6EB020E75EB030E22BFF5
:100A0000B61A754640EA0C005B084FEA3202B6EBB4
:100A1000020E75EB030E22BFB61A754640EA5C0063
:100A20005B084FEA3202B6EB020E75EB030E22BFF3
:100A3000B61A754640EA9C005B084FEA3202B6EBF4
:100A4000020E75EB030E22BFB61A754640EADC00B3
:100A500055EA060E18D04FEA051545EA16754FEA15
:100A600006164FEAC30343EA52734FEAC2025FEA33
:100A70001C1CC0D111F4801F0BD141EA00014FF0C2
:100A800000004FF0004CB6E711F4801F04BF014393
:100A90000020B4F1FD0C88BFBCF5E06F3FF6AFAEAF
:100AA000B5EB030C04BFB6EB020C5FEA500C50F13F
:100AB000000041EB045170BD0EF0004E4EEA1131C2
:100AC00014EB5C04C2BFD4EB0C0541EA045170BDC9
:100AD00041F480114FF0000E013C90E645EA060E0D
:100AE0008DE60CEA135594EA0C0F08BF95EA0C0F3B
:100AF0003FF43BAF94EA0C0F0AD150EA01347FF483
:100B000034AF95EA0C0F7FF425AF104619462CE759
:100B100095EA0C0F06D152EA03353FF4FDAE1046BC
:100B2000194622E750EA410618BF52EA43067FF40D
:100B3000C5AE50EA41047FF40DAF52EA43057FF49D
:100B4000EBAE12E74FEA4102B2F1E04324BFB3F546
:100B5000001CDCF1FE5C0DD901F0004C4FEAC00234
:100B60004CEA5070B2F1004F40EB830008BF20F018
:100B70000100704711F0804F21D113F13872BCBFD2
:100B800001F00040704741F480114FEA5252C2F127
:100B90001802C2F1200C10FA0CF320FA02F018BF70
:100BA00040F001004FEAC1234FEAD32303FA0CFCC3
:100BB00040EA0C0023FA02F34FEA4303CCE77FEA52
:100BC000625307D150EA01331EBF4FF0FE4040F49C
:100BD0004000704701F0004040F0FE4040F400004B
:100BE000704700BF80F0004002E000BF81F000418C
:100BF00042001FBF5FEA410392EA030F7FEA226CC3
:100C00007FEA236C6AD04FEA1262D2EB1363C1BF52
:100C1000D218414048404140B8BF5B42192B88BFC1
:100C2000704710F0004F40F4000020F07F4018BFE4
:100C3000404211F0004F41F4000121F07F4118BF04
:100C4000494292EA030F3FD0A2F1010241FA03FCAC
:100C500010EB0C00C3F1200301FA03F100F0004394
:100C600002D5494260EB4000B0F5000F13D3B0F15C
:100C7000807F06D340084FEA310102F10102FE2ACB
:100C800051D2B1F1004F40EBC25008BF20F001003B
:100C900040EA03007047490040EB0000013A28BFDA
:100CA000B0F5000FEDD2B0FA80FCACF1080CB2EB5D
:100CB0000C0200FA0CF0AABF00EBC25052421843DB
:100CC000BCBFD0401843704792F0000F81F4000180
:100CD00006BF80F400000132013BB5E74FEA410353
:100CE0007FEA226C18BF7FEA236C21D092EA030FBF
:100CF00004D092F0000F08BF0846704790EA010F39
:100D00001CBF0020704712F07F4F04D1400028BF65
:100D100040F00040704712F100723CBF00F5000047
:100D2000704700F0004343F0FE4040F4000070477D
:100D30007FEA226216BF08467FEA23630146420229
:100D400006BF5FEA412390EA010F40F4800070473C
:100D50004FF0000304E000BF10F0004348BF4042E2
:100D60005FEA000C08BF704743F0964301464FF01E
:100D700000001CE050EA010208BF70474FF000037A
:100D80000AE000BF50EA010208BF704711F00043BB
:100D900002D5404261EB41015FEA010C02BF84468B
:100DA0000146002043F0B64308BFA3F18053A3F5EA
:100DB0000003BCFA8CF2083AA3EBC25310DB01FA31
:100DC00002FC634400FA02FCC2F12002BCF1004FB5
:100DD00020FA02F243EB020008BF20F00100704746
:100DE00002F1200201FA02FCC2F1200250EA4C009A
:100DF00021FA02F243EB020008BF20EADC707047E0
:100E00007BB972B90029BEBF00204FF0004106E057
:100E100008BF00281CBF6FF000414FF0FF3000F00A
:100E2000BBB9ADF1080C6DE904CE002909DB002B3C
:100E30001ADB00F04DF8DDF804E0DDE9022304B030
:100E40007047404261EB4101002B1BDB00F040F892
:100E5000DDF804E0DDE9022304B0404261EB41012A
:100E6000524263EB43037047524263EB430300F08B
:100E70002FF8DDF804E0DDE9022304B0404261EB25
:100E800041017047524263EB430300F021F8DDF863
:100E900004E0DDE9022304B0524263EB43037047F0
:100EA00053B94AB9002908BF00281CBF4FF0FF31D1
:100EB0004FF0FF3000F070B9ADF1080C6DE904CED1
:100EC00000F006F8DDF804E0DDE9022304B0704725
:100ED0002DE9F047089E0D4604468A46002B7FD137
:100EE0008A42174641D9B2FA82F24AB1C2F12001D0
:100EF00005FA02F39740944020FA01F141EA030A0F
:100F00004FEA17484FEA144C1FFA87F9BAFBF8FE6C
:100F100008FB1EA30EFB09F14CEA0343994206D9D4
:100F2000FB1802D2994200F224810EF1FF3E591AB9
:100F3000A3B2B1FBF8F008FB101100FB09F943EA7A
:100F40000144A14505D93C1902D2A14500F20E8108
:100F50000138A4EB090440EA0E4000211EB1D44040
:100F60000023C6E90043BDE8F08702B9FFDEB2FA0C
:100F700082F2002A4FD1CB1B4FEA174E1FFA87F897
:100F80000121250CB3FBFEFC0EFB1C302B4608FB9D
:100F90000CF945EA0045A9450AD97D192CBF012362
:100FA0000023A94502D9002B00F0D9800CF1FF3CA9
:100FB000A5EB0905A3B2B5FBFEF00EFB105508FB2F
:100FC00000F843EA0544A04505D93C1902D2A045E2
:100FD00000F2C9800138A4EB080440EA0C40BDE7E8
:100FE0008B4208D9002E00F0B1800021C6E900052F
:100FF0000846BDE8F087B3FA83F1002946D1AB4239
:10100000C0F0A780824240F2A4800846002EAAD0F9
:10101000C6E9004AA7E7C2F12000974001FA02F3AF
:101020004FEA174EC14024FA00F51FFA87F89440A2
:101030001D43B1FBFEF02B0C0EFB101100FB08FC56
:1010400043EA01439C4509D9FB182CBF012100212B
:101050009C4502D9002900F095800138A3EB0C03D0
:10106000ADB2B3FBFEF10EFB113301FB08FC45EA08
:101070000345AC4505D97D1902D2AC4500F2898003
:101080000139A5EB0C0341EA00417AE7C1F12004E4
:101090008B4002FA01F705FA01FCE24020FA04F85D
:1010A000E54000FA01FE134348EA0C024FEA1348F8
:1010B0004FEA124C1FFA83F9B5FBF8FA08FB1A55F0
:1010C0000AFB09F04CEA054C60450AD913EB0C0CFD
:1010D0002CBF01250025604501D9002D55D00AF10E
:1010E000FF3AACEB000C92B2BCFBF8F008FB10CC62
:1010F00000FB09F942EA0C4CE14505D913EB0C0C55
:1011000001D2E1453BD8013840EA0A40ACEB090C7A
:10111000A0FB0789CC4545464A4602D306D1C645C1
:1011200004D20138B8EB070569EB03022EB3BEEB1E
:1011300005036CEB020C23FA01F20CFA04F42CFA0E
:1011400001F300211443C6E900430CE73146304661
:1011500009E7841A65EB030301209A4656E7ACF1D0
:10116000020C3D4424E702383C4434E702383C4456
:10117000EFE6AEF1020E3B44D9E63146F3E6023823
:101180009C44C1E702383B4468E7AAF1020A9C4448
:10119000A7E702393D4474E7704700BF10F8012B00
:1011A00011F8013B012A28BF9A42F7D0D01A7047A4
:1011B000034613F8012B002AFBD1181A0138704797
:1011C0002DE9F04304469BB00F461646002130221D
:1011D00002A811F0E0FA002C00F08780002E00F049
:1011E00084801B238DF8083011F03DF84FF47A739A
:1011F0000025A0FB038903FB01994FEAD8304FF487
:101200007A720023294640EA4940FFF749FE3C4AEA
:101210000244130A110201F47F0103F47F430B43DC
:1012200043EA026343F08303E06822610C933022B7
:101230002B46CDE9005502A90EF0B1FD00280FDBC9
:10124000294630220EA811F0A6FAA1683A46204697
:101250000EF005FEA84206DA0EF074FE0068404269
:101260001BB0BDE8F08337D0E06830222B46CDE9D3
:1012700000550EA90EF0C3FD0028EDDB30282ED15D
:10128000149B22691BBA9A4202D06FF01500E7E75F
:101290009DF8383003F00703042BF6D19DF8393060
:1012A00003B3189B199A1BBA12BA53EA0201ECD085
:1012B000002BB2600CDA134A9342E6D90CA1D1E9B3
:1012C0000001C01841F10001C6E900010020C7E794
:1012D00009A1D1E90001F4E76FF07300C0E76FF0F6
:1012E0007900BDE76FF00F00BAE76FF00D00B7E7C8
:1012F0008081557CFFFFFFFF8081557C000000004E
:10130000807EAA837F7EAA8301282DE9F0470D46BF
:1013100009D0042846D00EF015FE162303604FF0C6
:10132000FF30BDE8F0874FF02003EFF3118283F325
:101330001288BFF36F8F204BD3E900489E6882F379
:101340001188BFF36F8F10F08EFF0B461B4FA0FB71
:10135000070107FB031116A3D3E900234FEAD03995
:1013600049EA41494FEAD13A48465146FFF798FDCC
:101370000FA3D3E90023041941EB0808484651465E
:10138000C5E90048FFF78CFD0D4B32449A42AA6034
:1013900006D9013448F10001C5E90041D21BAA6019
:1013A0000020BEE700263446B046CCE7AFF300800D
:1013B00000CA9A3B00000000C8CB002000CA9A3B3C
:1013C000FFC99A3B000000000128F8B50C4606D082
:1013D0000EF0B8FD162303604FF0FF30F8BD10F09B
:1013E00042FF0E461C4D22686168A2FB052305FBE7
:1013F0000133A168521843EBE173A0FB050105FB23
:101400000611C50B45EA4145CC0B551B63EB0404A3
:101410004FF02003EFF3118783F31288BFF36F8F30
:101420000BA3D3E9002328462146FFF7E9FC08A3D4
:10143000D3E90023094EC6E9000128462146FFF7FB
:10144000DFFCB26087F31188BFF36F8F0020C5E720
:1014500000CA9A3B0000000000CA9A3BC8CB00209B
:101460000023F0B587B0CDE9043304230D460646CA
:101470000193002800F0D680002900F0D3800621D7
:1014800004A80FF005FB044668B16B4A6B4B01469C
:10149000D21AD20892016A4842F001020DF0C3FE4E
:1014A000204607B0F0BD014604AA30460FF0D7FA37
:1014B000044670B1604A614B0146D21AD2089201CB
:1014C000604842F001020DF0AEFE04A80FF00AFBE6
:1014D000E6E7032101AB02AA04A80FF0E4FB0446EF
:1014E00048B1554A554B0146D21AD2089201564886
:1014F00042F00102E7E7019B06AA1344014603F804
:10150000100C022202A80CF0C1FC6A46064601211A
:1015100004A80FF099FB044648B1474A474B0146DF
:10152000D21AD2089201494842F00102CBE7009B4F
:10153000042B27D0052B0DD0404B3F492870C91AEA
:10154000C9088901424841F002010DF05FFE6FF0C9
:101550007F04BAE709233F4F2B702A1D3CD0F0B21D
:101560000F2839D8072B11D0092B31D06FF07F0409
:10157000314A324B2146D21AD2089201364842F003
:101580000102A0E70723354F2B70E6E7344B33F811
:101590001000F8B1FFF75AF825A3D3E90023FFF7AD
:1015A000BFF8FFF7CFFA042168600DEB010302AA30
:1015B00004A801910FF077FB044680B11E4A1F4B2F
:1015C0000146D21AD2089201264842F001027AE777
:1015D000254BDCE72548E6E76FF01504C8E7019BDB
:1015E00006AA1344014603F8100C022202A80CF0CC
:1015F0004DFCC1B20F290CD9104B0F4A1C48D21A0E
:10160000D208920142F001020DF00DFE6FF01504B8
:101610005BE70130C0B2FFF79FFB3946FEF710FED3
:10162000A86052E76FF015043AE700BFAFF30080FF
:101630007B14AE47E17A244040300200D82F0200EC
:101640001E47020047470200734702009F470200FF
:10165000C14702000AD72340E94702000AD7A33F47
:10166000503502000D480200703502000AD7A34031
:101670003848020070B5054683685B6C03B1984733
:10168000AB685B6B4BB91E4CAB681E4E21689B6907
:1016900031443BB96FF0570008E0284698470028CE
:1016A000F1D170BD4FF480622846984723681844F2
:1016B000012820600AD1307800F0F8F8014628B9F6
:1016C00020604FF480620F4811F065F822680E4DDB
:1016D000012A03DD2B780BB973782B702B78002B44
:1016E000DFD09A42DDD1074800F07AF80021297056
:1016F00021604FF48062BDE87040024811F04BB8A1
:1017000070CF00204BD600204AD600202DE9F043B0
:1017100085B0114810F0D4FF4FF0FF364FF0FF377F
:10172000DFF83490DFF83480012248461146CDE9D5
:10173000006702AD10F0CCFF002128460DF0F7F84D
:101740000024D8F80000295D836801345B6898475D
:10175000062CF6D1E8E700BF74CF002080CF002030
:1017600010B50C480AF0F6FC0B4C8268206022B1E0
:10177000936C13B1002209499847206883689B6ADB
:1017800003B19847BDE8104001220548114610F00A
:10179000A1BB00BF9035020080CF0020751601006C
:1017A00084CF002070B504460D464FF4404200231C
:1017B00009480BF07BF865B1084E2544A54201D1DC
:1017C000002070BD306814F8011B83685B6898477F
:1017D000F4E76FF03000F4E784CF002080CF0020E2
:1017E00038B503780546A12B1CD006D8822B3CD0F7
:1017F000832B4AD0FF24E0B238BDA22B24D0C02BCB
:10180000F8D102210DF0C3F86C88844214BF402443
:1018100080240121244810F058FF0221224810F0B2
:1018200054FFE8E729210DF0B2F8B5F829308342DA
:1018300008D1284600F058F800280CBF01240424E1
:101840000121EBE70224FBE70F210DF0A0F8B5F82A
:101850000F30834207D1284600F068F800280CBFFB
:1018600008242024ECE71024EAE711210DF08FF87A
:10187000B5F81130834205D1284600F0FBFA4FF449
:101880008074DDE74FF40074DAE702210DF07FF891
:101890006B88834204D100F03FFB4FF48064CFE7B4
:1018A0004FF44074CCE700BF74CF0020FD2808B58A
:1018B00010D014D8A22808D8A0280ED87E30C0B2E4
:1018C00001288CBF0020012008BDA0F1C0035842B0
:1018D0005841F9E703480AF0C3FF0120F4E700206C
:1018E000F2E700BF84CF002030B50E4C2378132BD5
:1018F00015D803EB8302C3EBC2050B4A811C2A44B3
:10190000263051F8045B814242F8045BF9D1088823
:1019100001331080002089789170237030BDFF2042
:10192000FCE700BF57DD00204BDA002010B50D2486
:10193000837B0849013B04FB0313821C0E3052F8E1
:10194000041B824243F8041BF9D1127800201A705C
:1019500010BD00BF58DD00200048704758DD002052
:10196000004870474BDA00204FF4437208B500215D
:10197000034810F010FF0022024B1A7008BD00BF90
:101980004BDA002057DD002041220021014810F0F1
:1019900002BF00BF58DD002001480BF09FB800BF18
:1019A000A8CF002010B5124C42F21072012120463F
:1019B0000EF055FA002804DA0EF0C4FA006840422E
:1019C00010BD0BD0E38819070BD49A060CD413F082
:1019D000010F0CBF6FF00A000020F1E76FF00A0062
:1019E000EEE76FF00400EBE76FF00800E8E700BFF8
:1019F0009CCF0020014B1868704700BFA4CF002087
:101A000030B5A1B0502200210CA810F0C4FE022372
:101A10000021CDE90E330CAA01AB1F480EF05DF991
:101A2000019B1E499B691A1D143352F8040B9A42FC
:101A300041F8040BF9D143F21633194C02256380A7
:101A4000002325802375282302AA211D284602F0A1
:101A50000FFF01980EF043F911222946284601F0A4
:101A60005FFE104D0028286013DB182221460EF07F
:101A70006FF900280DDB0C4B2A681A6001229A804E
:101A800002F0DEFF094B18804FF4004000210BF0FC
:101A90007FFB21B030BD00BFCA35020026D6002032
:101AA00022D60020A4CF00209CCF002020D60020EA
:101AB0002DE9F041DFF894808AB006460F461446BF
:101AC00000214FF4A0621F481D4610F064FEB8F8D4
:101AD00000300133A8F8003001F01AFE032302227F
:101AE000CDE9028301230490CDE9003215494FF47A
:101AF000A06206A80DF02AFF00281FDB3B463246F5
:101B00000B2106A80DF063FF002817DB06A80EF0D6
:101B10001BF8002812DB2A46214606A80EF01EF804
:101B200000280BDB084B06991868BDF81C20002321
:101B3000CDE900330EF033F9FFF734FF0AB0BDE80A
:101B4000F08100BF99DD0020A4CF002020D6002026
:101B500030B54FF4A0628BB004460D461848002102
:101B600010F019FE01F0D4FD164A01230292022260
:101B70000490CDE9003212494FF4A062039306A805
:101B80000DF0E4FE002818DB0022062106A80DF067
:101B9000ADFF2B4622460B2106A80DF018FF0028AA
:101BA0000BDB094B06991868BDF81C200023CDE912
:101BB00000330EF0F4F8FFF7F5FE0BB030BD00BFB8
:101BC00099DD002080C60020A4CF00201FB5084A60
:101BD00001AB1068516803C39068186001A8FFF753
:101BE000E7FA81B201A8FFF7B3FF05B05DF804FB87
:101BF000DD3502000048704780C6002013B50A4C4E
:101C00000A490B4810F09CF900222046094910F0BF
:101C100059FB4FF0967200232046CDE900230BF0CC
:101C200007FD02B010BD00BFA0C90020CD1B010000
:101C3000A8CF00209919010010B5054905480EF0FC
:101C400083F9044C20460EF08BF90028FAD010BD21
:101C5000F8300200B8CF002008B50FF061F8BDE8F9
:101C600008400249024802F08DBD00BF2831020041
:101C7000B8CF00200149024802F084BD283102009B
:101C8000B8CF00202DE9F043264A8DB051680646B2
:101C9000106803AB03C390681822186000210DEB95
:101CA000020010F078FD204C204B214DE41AE4088E
:101CB000A40144F00304224629681E480DF0B3FA3B
:101CC0000027DFF87C90336903EB070898F80B30A6
:101CD000DBB100F035F902460B46404606A90CF090
:101CE00032FE33694846D919DA5F097B2B68ADF8B3
:101CF00000400DF0C5FA03A8FFF75AFA182381B285
:101D00000DEB030203A8FFF7D3FE0D37412FDAD105
:101D10002B680949013309482B6002F033FD0DB0EF
:101D2000BDE8F08332360200F82F0200D82F0200FF
:101D3000D0CF0020F735020018310200B8CF0020C4
:101D40000C3602001FB50F4805F0C8F9002005F059
:101D5000D9F9FFF755FE0C4A01AB1068516803C36F
:101D60009068186001A8FFF723FA81B201A8FFF775
:101D7000EFFEFFF743FF0549054802F003FD05B0FC
:101D80005DF804FBD11D0100DD35020028310200A1
:101D9000B8CF002007B54FF0FF334FF0FF320621D8
:101DA000CDE900230648012210F092FC04280CBF64
:101DB00004490549054803B05DF804EB02F0E2BCB4
:101DC00074CF00203831020008310200B8CF002063
:101DD000037853B9037A23B1DA1E012A01D95A2BA9
:101DE00003D10421014810F070BC704774CF00206B
:101DF00010B51F4C1F2120460CF03DFE1E21204631
:101E00000CF039FE142120460CF035FE0D21204641
:101E10000CF031FE0C2120460CF02DFE0B2120464B
:101E20000CF029FE0A2120460CF025FE092120464F
:101E30000CF021FE082120460CF01DFE0721204653
:101E40000CF019FE062120460CF015FE0521204657
:101E50000CF011FE042120460CF00DFE032120465B
:101E60000CF009FE2046BDE8104002210CF003BE34
:101E70004C2D020038B50446264D827806212846AE
:101E80000CF0E9FDE278052128460CF0E4FD22790A
:101E9000042128460CF0DFFD6279032128460CF06E
:101EA000DAFDA279022128460CF0D5FDE2791F2146
:101EB00028460CF0D0FD227A1E2128460CF0CBFDDE
:101EC000627A142128460CF0C6FDA27A0D2128461C
:101ED0000CF0C1FDE27A0C2128460CF0BCFD227BFF
:101EE0000B2128460CF0B7FD627B0A2128460CF036
:101EF000B2FDA27B092128460CF0ADFDE27B082152
:101F000028460CF0A8FD2846227C0721BDE8384071
:101F10000CF0A1BD4C2D020010B5074C204606F078
:101F200075FAD4E9003205495B184FF0000141EB26
:101F30000202C4E9003210BDF8CA002000DD6D00C5
:101F4000014BD3E900017047F8CA0020032808B507
:101F500006D90DF0F7FF092303604FF0FF3008BDED
:101F6000044B03EB40100830D0E8AF3F002BF0D01B
:101F70000020F4E7D4CF002070B504460D46164685
:101F8000FFF7E4FF002809DB064B600145B11A1892
:101F90005268AA4204D00DF0D5FF0660002000E090
:101FA000185870BDD4CF002070B504460E461546B3
:101FB000FFF7CCFF00280CDB074B610103EB441457
:101FC000626832601DB101F10C021A442A6058584F
:101FD00070BD0020FCE700BFD4CF002010B5002466
:101FE0004FF0FF324FF0FF3314480AF03FFB144A22
:101FF0006301D2E8AF1F79B10134042C02F1200251
:10200000F6D10DF09FFF17234FF0FF3403600B480C
:102010000AF0AAFB204610BDD2E8EF0F0130C2E85B
:10202000EC0FBCF1000FF7D10648C218C150516047
:102030000C3318440FF0CBFEE9E700BF40C8002086
:10204000DCCF0020D4CF002010B41446094B42014D
:1020500003EB4010995044604CB1E06838B10C3249
:102060002046134410BC40F205120CF040BD10BCD9
:10207000704700BFD4CF002030B50D4B400100F1B8
:1020800008021A44D2E8AF1F81B14C1ED2E8EF5FBC
:102090008D4204D1C2E8EC4FBCF1000FF6D1F1D172
:1020A000012901BF002219181A504A6030BD00BF33
:1020B000D4CF00200B6801330B60014B1B6818471D
:1020C00030C50020014B1860704700BF30C50020AC
:1020D00007B50B46002102460191034801A900F013
:1020E000E7F903B05DF804FBB520010030B5002529
:1020F00085B0CDE90101044601A90548039500F02A
:10210000D7F9DDE902309842B8BF255405B030BD9B
:102110000FEC01002DE9F84FB0F81890044619F0C3
:10212000080893460DD001290CBF49F0100949F069
:102130002009A0F818908BF31188BFF36F8FBDE8CA
:10214000F88F09F00709022907D120460CF08CFD11
:102150000028F0D00128238B50D16769218B002FF4
:1021600015DA256821F00701C4E9008841F0010172
:1021700021830026218B01F0070ACA4502D0A368FB
:10218000002B5CD10DB9002E74D0002358E001F073
:1021900007035A1F012A20D821F00701062B2568C2
:1021A00089B2C4E900880CD1002D2B4638BF00232A
:1021B0002BB1628B1B6801326283002BF8D141F096
:1021C0000201204621830CF04FFD06460028D1D0A5
:1021D000238B43F020032383CBE7042B0CD121F086
:1021E000070189B2204621830CF03EFD05460028F8
:1021F000BFD041F0200121830025BAE7032809D18F
:10220000226923F00703166843F0060300252383A1
:102210002F46AFE7042806D1226923F0070356684A
:1022200043F00403F2E7052806D1226923F00703EF
:10223000966843F00503E9E700252E46E8E7012309
:1022400041F0080121838BF31188BFF36F8F03BB2B
:10225000002D33D116B120462049B0474FF020035E
:10226000EFF3118B83F31288BFF36F8F238B23F06F
:1022700008032383238BDA0628D5012123F01003DA
:102280002383B4F8189009F0070900297FF45BAFA5
:1022900051E7A1680029DBD00B68002B38BF002371
:1022A000994652463B462046D1F804B0D847B9F18A
:1022B000000FCDD04946D9F80030EEE729463B461D
:1022C000524620462D680CF0EBFCC1E713F02001CC
:1022D0001EBF23F0200302212383D2E7CDEC0100AF
:1022E0002DE9F74F0369C46803F10109631E40F249
:1022F0006C740025019343698046E41845EBE3754F
:10230000B9F1020F8CBF00230123E41A65F1000527
:10231000002C75F1000357DA6FF4C7704FF4C872E0
:102320000023201845F1FF31FEF76AFD294B4FF0DD
:102330003C0C03FB0044D8E900539A46B9F1020F64
:102340008CBF6FF0020E4FF0090E4FEAE37BD8F816
:102350000830F144CCFB03ABAAFB0C230CFB0B3382
:10236000521943EBE57340F26D154FF0990E4FEAA9
:10237000940C05FB04CC019D0EFB09FE65444FF057
:10238000640C4FF00509B4FBFCF40EF1020EBEFB29
:10239000F9FEDFF84CC02C1BA644A0FB0C450CFB3F
:1023A00001550D4966180D4945F1FF3716EB0E062C
:1023B000A6FB014547F1000701FB0755A01845EBB7
:1023C000030103B0BDE8F08F4FF4C872002320462C
:1023D0002946A9E770FEFFFF9405F5FF8051010033
:1023E000B13A0200F0B5024601680A270020074E04
:1023F0000C46237801319D5D6D0701D41460F0BD5A
:1024000007FB0033A3F13000F2E700BFB95202002E
:102410002DE9F74F14469946D378244A6F2B13F8C9
:1024200002A006460AF003020F4601922DD028D8DA
:10243000582B14BF0A251025AA464FF0000BDDF8D3
:10244000308052465B4630463946FEF729FD092A60
:10245000D3B21FD830335F45DBB208BF564508F80A
:10246000013D01D3C84512D823789B0605D5082D18
:1024700016D1A37843F00803A370404603B0BDE82B
:10248000F08F03F0F703702BD3E70825D4E7064657
:102490000F46D6E7019A012A0CBF37335733DAE7E4
:1024A000102DEAD1A37843F01003E5E7B9520200FA
:1024B0002DE9F04F82468B4691461C46002593B08D
:1024C00099F8000008B928463AE309F101032528E4
:1024D000029306D05946D0470028C0F23183013517
:1024E000F1E1182200210CA810F055F999F80130FB
:1024F000252B59D0029A164612F8013B2B2B00F0DF
:102500008B8079D8202B00F08C80232B00F08E80DC
:102510009DF8383003F04402442A03D16FF3861348
:102520008DF838309DF83830059643F080038DF8EB
:10253000383033782A2B7ED19DF8393043F00103AF
:102540008DF83930731C05931A782E2A0CBF01219F
:1025500000219DF8392061F341028DF839200BD11B
:102560005A1C05925A782A2A7BD19DF839200233C9
:1025700042F004028DF83920194611F8010B6C283D
:1025800000F0B6807DD8682800F084806A2800F0CA
:10259000B9804C2800F0BD809DF8392019466FF3B2
:1025A000C6028DF8392080E009F1020202928DF80E
:1025B0003B309DF83930D90740F1498154F8048BFC
:1025C000B8F1000F07DA9DF83820C8F1000842F092
:1025D00004028DF838205A0740F1428154F8047BF8
:1025E000002F80F241819DF839306FF341038DF85F
:1025F00039304FF0FF3737E12D2B06D0302B87D104
:102600009DF8383043F0400303E09DF8383043F044
:1026100004038DF838306EE79DF8383043F0080336
:10262000F7E79DF8383043F01003F2E79DF83830B3
:1026300043F02003EDE705A8FFF7D4FE059BB34266
:1026400081D09DF838100F90C1F3400242EAD07259
:10265000520062F07F0201F07D010A438DF83820BC
:1026600071E705A8FFF7BEFE9DF838301090C3F360
:10267000400242EAD07060F341038DF83830059B88
:102680007AE774289DF8392040D07A2884D11346FF
:10269000062228E05A78682A9DF8392021D10121A4
:1026A00061F3C6028DF83920991C0B4613F8012BF3
:1026B000782A02938DF83B209DF8393000F2BF80D4
:1026C000572A33D8412A03D0453A022A00F2B7806C
:1026D00004229DF83A3062F302038DF83A30012368
:1026E00084E01346022262F3C6038DF83930DCE73A
:1026F0005A786C2A9DF8392001D10421D0E713467D
:102700000322F0E705229DF83930ECE71346072253
:10271000E9E7BDF8383023F4F04323F0020343F433
:10272000804343F00203ADF83830BEE7A2F1580110
:10273000202900F2848001A050F821F00128010036
:102740003F2801003F2801003F2801003F280100E9
:102750003F2801003F2801003F2801003F280100D9
:10276000D12601003F28010001280100C1270100F6
:10277000D1260100D1260100D12601003F28010009
:10278000C12701003F2801003F2801003F28010028
:102790003F28010009280100012801002528010027
:1027A0003F2801003F280100252801003F280100A3
:1027B000012801003F2801003F28010001280100F5
:1027C00001209DF83A1003F0780360F30201402BDA
:1027D0008DF83A1002BF9DF8381041F001018DF8D4
:1027E0003810632A31D1003B18BF01239DF83820EF
:1027F000C2F340010B4363F341028DF83820D8E661
:1028000002209DF83A10DEE703219DF83A2003F0FC
:102810007803A3F1400061F3020243428DF83A20AD
:102820004341E3E703219DF83A2013F0780F61F369
:10283000020214BF012300238DF83A20D6E79DF849
:10284000383043F001038DF838300023CEE79DF98E
:102850003820002AACBF4FF0FF38DDF83C80BAE6E4
:102860009F077FF5C6AE109F0023CDE90F339DF87B
:102870003A309DF8391003F00703012BC1F3C3016F
:1028800037D1CB1E042B21D8DFE803F00307072044
:10289000200054F8042BD31704E0073424F0070475
:1028A000F4E80223CDE90C239DF8383013F0030639
:1028B00055D04A4659465046029B0CF04FFC002822
:1028C000C0F23E810544DDF80890F9E554F8042B88
:1028D00001294FEAE273CDE90C2305D19DF8303090
:1028E0000C9300230D93DFE70229DDD1BDF93020E1
:1028F000D1E7022B23D1CB1E042B13D8DFE803F042
:10290000030A0A12120000232268201D0C920D9364
:102910000446C9E7073424F00700F0E80223CDE9B4
:102920000C23F5E754F8043B01290C934FF0000306
:102930000D93D3D00229B7D1BDF83030D0E7042BA6
:1029400007D1073424F00704F4E80223CDE90C236F
:10295000AAE7032B04BF54F8043B0C93A4E79DF8AB
:102960003B007828AFD8622820D825283FF4B2ADA4
:102970005828A8D1DDE90C010DF12E0300930EAA11
:1029800006ABFFF745FD8146002F0DF12E000BDB56
:102990009DF83820A0EB09036FF386129F428DF853
:1029A000382001D9FF1A0F9707463CE063381528F5
:1029B00089D801A252F820F0372A0100992A010093
:1029C000C7280100C7280100C7280100C728010047
:1029D000992A0100C7280100C7280100C728010063
:1029E000C7280100F72A0100C52A0100C92A0100F1
:1029F000C7280100C7280100112A0100C7280100CB
:102A0000C52A0100C7280100C7280100C52A010006
:102A1000002FDDF830900ADB394648460FF0FFFE04
:102A2000002609EB0007B9F1000F0CD14BE748462F
:102A3000FEF7BEFBF4E700260C9B0DF119078DF89D
:102A400018300DF11809A7EB090306B101339DF801
:102A50003A20D00669D5023352060F9948BF109A22
:102A60000B4448BF9B18B8F1000F76DD9DF8382065
:102A7000A8EB0308C2F38003039353076DD45006F9
:102A800061D53EB159463046D047002858DB039BFC
:102A900001351E46302357E01E0711D413F01006EF
:102AA00018BF2026DDE90C23002A73F10001BFF6D0
:102AB00061AF524263EB43032D26CDE90C2359E766
:102AC0002B26EFE7002655E70C9848B30DF12E03AF
:102AD0000093002106AB0EAAFFF79AFCBDF83A302E
:102AE000814603F0EF0343F4F04343F01003002664
:102AF000ADF83A3048E70C9B07293FF6E4AEDFE833
:102B000001F00D04060D08080D0D1D70DBE61D809B
:102B1000D9E62846E917C3E90001D4E61D60D2E6EC
:102B20002E4F0646A7F105098DE7110748BF01336F
:102B300092E7184659460393D0470028039B04DACE
:102B400013B0BDE8F08F202345444246002AA5EB90
:102B5000080108F1FF38ECDC0D462EB1594630462D
:102B6000D0470028ECDB01359DF83A30D90601D476
:102B70001A0705D559463020D0470028E0DB01353B
:102B80009DF83A30DB0606D559469DF83B00D04704
:102B90000028D5DB01350F9E2E44731B002B15DC5E
:102BA0003B464A46594650460CF0D8FA0028C7DB47
:102BB0000544A844A8EB0503002B7FF784AE5946D3
:102BC0002020D0470028BBDB0135F3E759463020F1
:102BD000D0470028B4DB0135DFE700BF77360200BD
:102BE0004FF02002EFF3118382F31288BFF36F8F4F
:102BF0000121044AC2F8401583F31188BFF36F8F97
:102C0000002070470090034020B1034B800143F047
:102C100001031847704700BFF030020030B50022B2
:102C200089B00F490F480FF04DFB0022002300240C
:102C3000CDE906230E230C4DCDE903344FF4407249
:102C40002846CDE90144094B0949009409F06EFC7E
:102C5000084928460FF0ADF8204609B030BD00BF46
:102C6000792C010000CB002038CB0020A5300100DA
:102C7000481D01207C360200014809F0F1BD00BF6B
:102C8000A4C80020F0B505460020012703460246EF
:102C90000D4E15F8014B0CB18B4200D3F0BD252C25
:102CA00002D182F00102F4E7002AF2D014F806C043
:102CB0001CF0030FEDD0732C04BF07FA03F210438E
:102CC00001330022E5E700BFB952020000230C4A9D
:102CD00010B513700B4A4FF4004013600A4B0B4AB7
:102CE0001A6000F0B9FC00F057FA09480CF06BFAD2
:102CF000BDE8104004233422064907480FF00EB8FF
:102D00009AE2002058D0002034C5002005F20100CE
:102D100060D000200867012068D0002070B5104BFB
:102D2000D3E8EF5F6A1CC3E8E12F0029F8D12DB981
:102D30000C4C0D4E361B3611B54200DB70BD237BAB
:102D400053B123689B690BB12046984763680422FE
:102D50002046196800F012FA01351034ECE700BF84
:102D60005CD00020883002009830020010B54FF08F
:102D70002003EFF3118483F31288BFF36F8F0448AD
:102D80000CF031FA84F31188BFF36F8F10BD00BFD0
:102D900060D0002010B5044C227812B9034809F025
:102DA0005FFD0123237010BD99E20020A4C800201C
:102DB000084BD3E8EF2F0132C3E8E12F0029F8D107
:102DC000054BD3E8EF2F013AC3E8E12F0029F8D1F2
:102DD000704700BF58D0002054D000200020024689
:102DE000034BD3E8EF0FC3E8E12F0029F9D1704777
:102DF00058D00020F8B5FFF7F1FF00260746094C30
:102E0000094D2D1B2D11AE4200DBF8BD63685B79C7
:102E10002BB123681B6913B1394620469847013608
:102E20001034F0E78830020098300200154B73B57B
:102E30009842044602D3144B98421DD3002200232B
:102E4000124801A909F010FB0546C0B90122019BF7
:102E5000D3E8EF1FC3E8E02F0028F9D1019E2D220F
:102E6000331D184621460FF0C7FC7E22034686F824
:102E7000312086F832501C46204602B070BD044B0B
:102E8000F9E700BF8C2C02000C54020068D000202F
:102E90008436020048B1054B984205D3D03398429E
:102EA0002CBF0020012070470020704708670120D8
:102EB000414B2DE9F74F1B78044603B9A0B1FFF74A
:102EC00055FF054618B19CB128460CF078FA2CB98C
:102ED0003A4B1B68002B01DDFFF78CFF38480CF0E4
:102EE00080F9041E18BF0124204603B0BDE8F08F0E
:102EF000344BD3E8EF2F013AC3E8E12F0029F8D192
:102F0000314B1B78BBB92B7ADB0714D40CF066FA73
:102F1000804628460CF031FA01464046FFF7B2FEE3
:102F200006462A4B2A4ADFF8BCA09B1ADFF8B8B045
:102F30004FEAD30936B9274E274F4FF00008BF1B81
:102F40003F1136E0B6FA86F7C7F11F073946284623
:102F50000CF016FA214B0246984202D3204B9842BD
:102F600016D31046FFF796FF90B9524510D06989E5
:102F7000C1F3891100F0F4F84FEA891343F001031B
:102F80000246ADF800303946434658460CF078F911
:102F9000012303FA07F726EA0706CBE773685B7994
:102FA00023B13368294630465B68984708F1010829
:102FB0001036B845F2DB87E799E2002058D00020B0
:102FC00060D0002054D000209AE200202830020077
:102FD000D82F020088300200983002008C2C0200AA
:102FE0000C540200843602009E360200264B37B590
:102FF0001B68418104469847E0604FF02003EFF3DF
:10300000118583F31288BFF36F8F204821460CF09F
:10301000DEF885F31188BFF36F8F1D4BD3E8EF2FD8
:10302000511CC3E8E01F0028F8D11A4B1B7883B16C
:103030004FF02003EFF3118483F31288BFF36F8FF7
:103040000020FFF735FF84F31188BFF36F8F03B0C3
:1030500030BD114B1B68002BF9D052B90022002360
:103060000E48CDE900234FF4004200230AF0E0FAB5
:10307000EDE70A2AEBD109480FF030F9084803B010
:10308000BDE8304009F0ECBB34C5002060D0002022
:1030900054D000209AE2002084D0002000CB0020F1
:1030A000A4C8002010B5FFF739FE0AF08BF80C4BCE
:1030B000186030B10B4B1B68092B02DD0A4809F080
:1030C000CFFB094C0020FFF7F3FE0028FAD14FF0A8
:1030D000FF324FF0FF33204609F0E8FBF2E700BF74
:1030E00084D0002054D00020A4C80020F8B50E4F92
:1030F0003D7875B9FFF712FE0C4C0D4E361B36119C
:10310000B54207DB0020FFF7D3FE0028FAD10123E8
:103110003B70F8BD63685B791BB1236820465B692F
:10312000984701351034EBE79AE20020883002001E
:103130009830020007B504380190D0E8EF3F5A1EDE
:10314000C0E8E12F0029F8D1012B03D1034801A9E0
:103150000EF0FFFD03B05DF804FB00BF68D0002057
:10316000044A054B9B1AB1EBD30F34BF52F8310020
:1031700000207047D82F020088300200054B4268BB
:10318000C31A1B11013313710122436819605A716C
:10319000FFF700BE88300200202302491A46024889
:1031A0000EF0BCBDD867012088D00020002337B5C1
:1031B000094D01930120FFF77BFE0446FFF7F8FD60
:1031C00000220023284601A909F04EF908B1002C7D
:1031D000F0D1019803B030BD88D00020002307B59E
:1031E000002201930648002301A909F03DF910B11E
:1031F000FFF7DCFF0190019803B05DF804FB00BF0E
:1032000088D00020F0B5037A457A85B00190D807C0
:103210004FEA15151CD4DDB100242646314601982D
:103220000CF0AEF80746FFF735FE70B134B9019BDC
:1032300029461869FFF726FD044648B124FA06F32B
:10324000D90702D53846FFF775FF0136AE42E5D300
:10325000019B1A7A920704D55B69084C0393039B80
:103260002BB9064801A90EF074FD05B0F0BD1D682C
:10327000204603A90EF06DFD0395F0E788D00020ED
:103280000EB403B503AB53F8042B01460448019375
:10329000FFF70EF902B05DF804EB03B0704700BF12
:1032A000DDF601002DE9F04F1F4687B001F0010364
:1032B0000592064688469DF84090BDF948A001F069
:1032C000020B049301F008050BF0F6FF02460028FC
:1032D00044D030463849FFF7D3FF0446BBF1000F16
:1032E00008D018F0440F3BD13A4630463349FFF737
:1032F000C7FF0444049B53B1314B304653F8292097
:10330000304B3149002A08BF1A46FFF7B9FF3DB1DB
:103310002E4B304653F829202D49FFF7B1FF0546C3
:10332000BAF1000F16DB059B002B43D0012303FAF3
:1033300009F9284B19F0100F274F18BF1F465146A7
:103340009DF84400FFF70CFF394602463046FFF770
:1033500097FF0544281907B0BDE8F08F0446BDE784
:103360001E4B18680028C4D01D4B4FF4616C1968BF
:103370004FF03C0EB7FBF1F7B7FBF0F1B1FBFCF2FD
:1033800000FB11770CFB121C4FF47A714F43B7FB13
:10339000F0F800FB1877BCFBFEF34F43B7FBF0F0EF
:1033A0000EFB13C1CDE90180009130460D49FFF7B6
:1033B00067FF9EE7084FC2E7F0360200F4360200CE
:1033C00048310200E2360200BF4E02005C310200CA
:1033D00019370200EC360200E7360200A4D00020C4
:1033E000A8D00020FD36020038B50C46E10705469E
:1033F00003D5084A0849FFF743FFE20608D4A306AD
:103400002846BDE838404CBF04490549FFF738BF9E
:1034100038BD00BFE2360200BF4E0200F550020088
:10342000F45002002DE9F0471D46089B1746DA06C6
:1034300004460E4605D499064CBF2B492B49FFF78D
:103440001FFF4FF00008DFF8AC90A8452DDB0025EA
:10345000DFF8A480DFF8A490DFF898A0BD4232D254
:1034600049462046725DFFF70BFF0135102D23D131
:1034700020461F49FFF704FF0025DFF87880DFF8BA
:103480008090DFF880A0AF4229D9725D514612F8D2
:103490000930204613F0970F08BF2E22FFF7F0FEE9
:1034A0000135102D14D1BDE8F08749462046FFF7BD
:1034B000E7FE08F10108C8E76A07CFD15146204668
:1034C000FFF7DEFECAE741462046FFF7D9FECCE70C
:1034D0006B07D8D141462046FFF7D2FED3E74146DD
:1034E0002046FFF7CDFEDBE7F5500200F450020066
:1034F0002937020027370200253702001F37020054
:10350000B95202000D4402002DE9F0478B7A1746AC
:1035100013F0070805460E460A7A8AB021D0D24336
:103520004989C3F3C203C1F38911CDE90083029134
:10353000F368394602F00102FFF7B4FE8146347A9F
:10354000E44314F001040ED0294630460BF05CFF32
:10355000B8F1000F2BD0424639462846FFF744FF0A
:1035600025E0C146EBE7B8F1000F26D12746EB680E
:1035700006AA069330463B46A9680BF031FF069A2F
:103580006B681A603AB1AB68134413F8014CA4F1AC
:103590000A035C425C4128460CF093F8069B1F44EA
:1035A000002BE4D11CB128461349FFF769FE2846D9
:1035B0000CF087F80AB0BDE8F08730460BF00EFF3C
:1035C0000E4902462846FFF75BFE4FF0100A05AA97
:1035D0002346304606A9CDF814A00BF001FF059A4A
:1035E000002AB8D04B462846009706A9FFF71AFFD5
:1035F000059B1C44EBE700BF2B370200BF4E0200C7
:1036000042F20F7373B58B4228BF0B460568044620
:10361000052168460D4A0BF01AFB064663682846EA
:103620000B225B680A490BF0E2FE6368324669468A
:1036300028465B680BF0DBFE63681B2228465B684C
:1036400004490BF0D4FE02B070BD00BF4950020027
:10365000693702004D37020001230021074A10B5E7
:10366000074C1360A04204D801B11360054B1860E9
:1036700010BD012140085B00F4E700BFA8D0002086
:1036800040420F00A4D00020F8B50D460446064F76
:103690004618B44201D12846F8BD386814F8011B19
:1036A00083685B689847F4E7C0D00020014B024A6A
:1036B0001A607047C0D00020942D02000122024BF6
:1036C00002481A700BF0FDBF9BE200208C31020013
:1036D0000148FFF795BF00BF8C31020010B50C46C2
:1036E00008460BF041FE214604480F22FFF70CFF6D
:1036F0002046BDE810400BF062BE00BF8C310200D6
:1037000008B501F09DF9014B188008BD3AD600209C
:10371000024B1888421C1A80704700BF3AD600201E
:103720002DE9F04105460E461746104CDFF8408063
:10373000444507D30CF006FC6A2303604FF0FF30CA
:10374000BDE8F0812368AB4200D063B93A46314608
:1037500028466368984730B13A4631462846A36800
:10376000BDE8F04118470C34E2E700BFCC2F02005F
:10377000D82F02002DE9F04F064600279BB0049198
:10378000104619461D4614460EF073FDB046B94664
:10379000CDE905010BABDDF810B008930397BBF141
:1037A000000F1FD1039B002B63D001350BBFB4F179
:1037B000FF3F4FF47A734FF0FF33A4FB03451CBF68
:1037C000E30B43EA45430193049B394600934FF4CE
:1037D0008272334648460CF086FA074638461BB0DC
:1037E000BDE8F08FD8F8000000283DDB0AAA09A93F
:1037F000FEF7DAFB0790002836D04FF0FF324FF08B
:10380000FF330A980CF07EFA1AAB019308AB0093D1
:103810004FF481724346079909980CF064FA10F14D
:10382000780F82460ED010F1120F07990ED1B9F120
:10383000000F02D10F46DDF8249001234FF0000A5B
:10384000039303E0002400254FF0000A0A980CF0CF
:1038500048FABAF1000F07DA0CF074FBCAF1000362
:103860004FF0FF370360B9E708F108080BF1FF3BA1
:1038700095E754EA050311D06A1C08BFB4F1FF3F75
:103880000CD009F075FE059B1C1A069B63EB010525
:10389000002C75F10003BCBF0024002508990BAF74
:1038A0003E4BC91B891059432B462246384609F026
:1038B0001FFF00F10B030B2B814608D840F681084F
:1038C00028FA03F86FEA080818F0010804D00CF091
:1038D00039FBC9F10003C3E70897B1464746DDF855
:1038E00010A0BAF1000F1BD1B8F1000F3FF476AF72
:1038F000002F3FF773AF54EA05033FF46FAF6B1C23
:1039000008BFB4F1FF3FC9D009F032FE059B1C1A75
:10391000069B63EB0105012C75F10003BEDA5DE740
:103920004FF00003D9F80000A9F8063000282DDB7D
:103930000AAA09A9FEF738FB834620B92023A9F873
:103940000630013722E04FF0FF324FF0FF330A9884
:103950000CF0D8F908AB594640F2031200930998CD
:103960004B460CF0C0F983460A980CF0BAF91BF1EB
:103970000B0F10D0BBF1000F04D00CF0E3FACBF129
:1039800000036DE7B9F90630002BDAD109F1080917
:103990000AF1FF3AA5E74FF00108F7E7CDCCCCCC10
:1039A000014B1860704700BFC4D0002010B4034C16
:1039B00024682468A44610BC604700BFC4D000201F
:1039C000014B1B685B681847C4D000202DE9F84301
:1039D00005464FF02003EFF3118683F31288BFF3FF
:1039E0006F8F104B1C68002C38BF00249CB14FF027
:1039F0000C090D4FDFF83480D4E90132002D08BFE7
:103A000013462BB198F8142009FB02F2B85C9847D2
:103A10002468002CF0D186F31188BFF36F8FBDE8C6
:103A2000F88300BFC8D00020D4D00020D8D5002013
:103A3000012200F01F039A40084B400903EB80006D
:103A4000D0E8EF3F43EA0201C0E8EC1FBCF1000FF1
:103A5000F6D11A4214BF012000207047E0D00020A8
:103A6000012230B51A4B85B01D7D05F01F039A4029
:103A7000D043184B690903EB8103D3E8EF1F01EA38
:103A80000004C3E8EC4FBCF1000FF6D1114217D08F
:103A90000C22114C01AB02FB054207CA83E8070068
:103AA0000E4A7AB193E807000BF082FB0020FFF783
:103AB0008DFF0C2300226B43E118E250C1E9012283
:103AC00005B030BD82F31188BFF36F8FEEE700BF02
:103AD000D8D50020D0D00020D4D00020B1F10100F2
:103AE0002DE9F041334B07461C7D88B02046FFF797
:103AF0009FFFDFF8D88060B90C256E4605FB048572
:103B00003A46214630460CF0C8F996E8070085E8A9
:103B100007000C23634318F8030008EB0302650950
:103B200004F01F06A8B37B1C0FD04FF4004C0021FB
:103B3000D2F808E020480023ECFB0E011F4AFDF7F5
:103B4000AFF90121381A0EF070FB09F091F801204D
:103B5000FFF73CFF01221A4BB24003EB8503D3E889
:103B6000EF1F1143C3E8E01F0028F8D10C2303FB2B
:103B7000048405AB94E8070083E80700114A1AB1F2
:103B800093E807000BF001FBFFF76AFF09F04AFA20
:103B900001200123B340DB430B4A02EB8505D5E846
:103BA000EF2F1A40C5E8E12F0029F8D108B0BDE891
:103BB000F08100BFD8D500203F420F0040420F00E7
:103BC000D0D000208BF10100E0D00020D4D0002024
:103BD00008B509F04DF8BDE8084001480CF081B97E
:103BE000E4D0002008B503480CF07CF9BDE808409B
:103BF00009F018BAE4D00020014910220A60704789
:103C000010ED00E072B6404080F31188BFF36F8F73
:103C1000BFF34F8F30BF62B6BFF36F8F704700BFE7
:103C200072B6494081F3118820BF80F3118862B6D3
:103C3000704700BF73B506460C4601B3134B144DD5
:103C40001448ED1AED08AD0145F00105ADF800503E
:103C5000D1E9012309680BF013FBADF80050D4E95A
:103C60000423E1680C480BF00BFB2A46E1690B4882
:103C70000BF0D9FA2A46A16909480BF0D4FA21467B
:103C8000304602B0BDE8704008F096BAD82F020066
:103C90006030020092370200C1370200F0370200A4
:103CA000FF37020043B2002B08DB012200F01F00A7
:103CB00002FA00F0024A5B0942F82300704700BF95
:103CC00000E100E0054B420953F82220012300F0F7
:103CD0001F0003FA00F01040704700BF00E100E051
:103CE00043B2002B01F10101ACBF03F16043064B6D
:103CF0004FEA4111C9B2ABBF03F5614300F00F00B9
:103D000083F800131954704714ED00E008B572B63B
:103D1000044B9A691AB100229A610EF051F862B60A
:103D200008BD00BFD8D5002030BFFFF7FDBF00BFE2
:103D30000F4A08B50F4B22F07F029A60BFF34F8FF6
:103D4000BFF36F8FD3F8882022F47002C3F8882065
:103D5000EFF3148323F0040383F31488BFF36F8F0E
:103D600008F0D0FA09F0A8FA00F00AFB08F0D4FA3B
:103D70000000010000ED00E00A4A0B499368096861
:103D8000C3F88400C3F8881008494B6843F0805397
:103D90004B60002383F31188BFF36F8F9368D3F8D0
:103DA00088007047D8D50020D834020000ED00E02C
:103DB00014498A684FF030001044EFF3098C80E812
:103DC000F01F202080F31288BFF36F8F0E4F4FF04B
:103DD0000066CA698A603E60D2F884000023C2F897
:103DE000843080F3118802F1300090E8F01F8CF3EA
:103DF000098802F1000004B50CF06FF8BDE804403A
:103E000070470000D8D5002004ED00E01EF0040F3C
:103E10000CBFEFF30880EFF30980816911F8021CF1
:103E20000229FFD001B50CF049F801BD42F8203C51
:103E3000009B0B4942F81C3C019B21F0010142F818
:103E4000183C029B42F8081C42F8143C4FF0807367
:103E500042F8043C0023203A0265C0F884307047E1
:103E6000BFED0100084B9860436F83F30B88104649
:103E700081F30988002163B681F31188BFF36F8F46
:103E8000002200230AF09BFFD8D5002001B572B6AE
:103E90000B4A906900281EBF002191610DF090FF30
:103EA00062B6EFF30580A0F110004FEAC0000549AB
:103EB000014409C99847BDE801400349084700008B
:103EC000D8D50020C42D0200CD3E0100044B9968D6
:103ED000D869884203D003494FF080520A60704786
:103EE000D8D5002004ED00E070B5284B284C294DB2
:103EF000E41AE408A40144F00106314626480BF018
:103F000085F9AA6A930103D5314624480BF07EF95E
:103F1000AB6ADD0104D5224844F001010BF076F9CB
:103F20001C4DAE6A16F4801605D01E4844F00101FF
:103F30000BF06CF90226AB6A180304D51A4844F05A
:103F400001010BF063F9134DAA6A510304D5174818
:103F500044F001010BF05AF9AB6A9A0304D51448F6
:103F600044F001010BF052F90A4DAB6ADB0304D5B2
:103F7000104844F001010BF049F9AB6A30466FEA92
:103F800003436FEA1343AB6270BD00BFD82F02003A
:103F90006030020000ED00E02D38020045380200DC
:103FA00058380200723802009C380200BA38020009
:103FB000DF380200F93802002DE9F041284B294C86
:103FC000294DE41AE408A40144F0010807460E460E
:103FD000264841460BF01AF9AA6AD00603D5414695
:103FE00023480BF013F9AB6A190704D5214844F0B4
:103FF00001010BF00BF91C4DAB6A9A0712D544F086
:10400000010841461C480BF001F9696BAB6A1B06BD
:1040100008D5424619480BF006F91FB1AB6A23F0E8
:104020008003AB62104DAA6AD00704D5144844F04F
:1040300001010BF0EBF8AB6A990604D5114844F086
:1040400001010BF0E3F80020074B9A6AD20658BF33
:104050009A6A9A6A42F0FF029A623070BDE8F08173
:10406000D82F02006030020000ED00E02439020089
:104070003A3902006D390200803902009839020095
:10408000AE390200CD3902002DE9F0412A4B2B4C0C
:104090002B4DE41AE408A40144F0010807460E463B
:1040A000284841460BF0B2F8AA6AD10403D541462C
:1040B00025480BF0ABF8AB6A1A0504D5234844F049
:1040C00001010BF0A3F81E4DAB6A9B0512D544F01D
:1040D000010841461E480BF099F8A96BAB6A180419
:1040E00008D542461B480BF09EF81FB1AB6A23F47B
:1040F0000043AB62124DAB6A590504D5164844F033
:1041000001010BF083F8AB6ADA050DD5134844F0D2
:1041100001010BF07BF80020094A936A43F47F43C6
:1041200093623070BDE8F081AB6A9B04F3D50C4814
:1041300044F00101EDE700BFD82F0200603002001B
:1041400000ED00E0FC390200123A02006D39020075
:10415000233A02003C3A0200513A02006C3A020053
:10416000CD3902002DE9F0436B4B0546D3F80480AE
:104170008946144600278BB0C8F3080687F31188D8
:10418000BFF36F8F02F07F43B3F17F4F24D1D0078D
:1041900022D4510603D422070ED401270EE05F4932
:1041A0005F4B60485B1ADB089B0143F001010BF099
:1041B0002DF814F0040701D04D46002700238DF898
:1041C0000730F31E092B00F28E80DFE803F0077B37
:1041D0007F788C8C8C8C8C833D46EFE74FF0000809
:1041E0004E4A4F4E5048B61AF608B60146F0010640
:1041F00031460BF00BF8484B8DF80780DC6A14F061
:10420000020405D0314649480BF000F8002406E0CE
:10421000DA6A002A23DA314645480AF0F7FF9DF8AA
:104220000730CBB902AA05F1200613462868696851
:10423000083503C3B5421A46F7D1099B002F66D053
:10424000C3F3080222B96FEA53236FEA43230993A9
:10425000204602A9FFF7EEFC0BB0BDE8F083DB6A55
:104260005B00DCD5314633480AF0D0FFAB6933F848
:10427000022C4DF602739A420CD003F1604303F610
:1042800026631B786BB101200DF10701FFF794FE47
:104290000446C4E73246296827480AF0C4FF2C6860
:1042A000BDE7264B1B782BB101200DF10701FFF76D
:1042B000EBFEEDE7224B1B889BB2002BAFD0FFF744
:1042C00013FEE5E700200DF10701DFE700200DF107
:1042D0000701ECE71249114B1A48C91AC9088901AC
:1042E00041F0010190E70D4A0D4B17489B1ADB087E
:1042F00018F4F87F4FEA8313144943F0010318BF01
:104300000146A6F1100212480AF0A1FF7EE723F44D
:10431000FF7323F001039AE700ED00E0D82F0200BD
:1043200060300200843A0200A73A0200BE3A02005E
:10433000DF3A0200ED3A02000C3B020029ED00E0FA
:104340002AED00E0283B0200613B02004C3B0200EA
:104350007A3B0200044B5A6942F010025A615A69D2
:1043600042F480625A61704700ED00E0EFF308808C
:10437000EFF3098101B57246FFF7F4FE01BD00BFFE
:10438000002320210348C2180133412B82F8001377
:10439000F9D1704700E100E00EF072FC202080F3BC
:1043A000118808484FF40061401880F30988EFF342
:1043B00014800221084380F31488BFF36F8FFFF746
:1043C000B7FC0000083F0120BFF34F8F0549064BA3
:1043D000CA6802F4E0621343CB60BFF34F8F00BFA3
:1043E000FDE700BF00ED00E00400FA05064B9B6806
:1043F000834207D1EFF3058323B1044A536843F0A6
:104400008053536008F0F4BED8D5002000ED00E0E2
:104410001FB5094C094A23460121094800F012F949
:1044200000230393074B0121E41A01A8019302948E
:1044300000F012F904B010BD0000042000C50020F7
:104440009C31020010C9002010B50B680C7A23F0D3
:104450001F0204F01F031A43CB68640923F01F03F3
:10446000044943EA440343F001038860CA600B61D6
:1044700010BD00BF90ED00E00F2810B50DD9084B1E
:10448000084A0146D21AD2089201074842F00102B6
:104490000AF0C9FE6FF0150010BDFFF7D5FFFBE76E
:1044A000D82F020048300200913B02002DE9F04F66
:1044B0008946144606464FF00008544D85B0C8455D
:1044C00033DAD6F804A0BAF1000F4DD0BAF11F0FBD
:1044D0001ED91AF01F0F1BD1D6F800B01BF01F0F0A
:1044E00016D158460BF0FFFC07460AEB0B000138CB
:1044F0000BF0F9FC87421CD06FF01507444A454B7E
:104500003946D21AD2089201434842F0010208E02B
:1045100041463F4A3F4B4148D21AD208920142F0ED
:1045200001020AF080FE6FF01504204605B0BDE8D8
:10453000F08F17F1160FE1D0631EBB42DEDBAF60D8
:10454000E968AF602B6921F01F0143F01F0BD6E92A
:1045500000321A44994202F1FF3A1AD1D34507D1E9
:104560003146F8B20BF0C8FC08F101080C36A6E79A
:104570003146AF60EB6822F01F0203F01F031A43BD
:10458000EA60E0B20BF0B8FC10F1160FCBD0441C7F
:10459000EAE7013BD345E0B223F01F03AF6006D149
:1045A0002A69314602F01F0213432B61EAE72969A9
:1045B00001F01F010B432B6131460BF09DFC10F104
:1045C000160FB0D0AF60EA689DF808300BF1FF3BE2
:1045D00062F304038DF808302B699DF808205B080E
:1045E00063F347128DF80820D6E900321344009394
:1045F00023F01F035B44A3EB0A03013023F01F03E6
:104600006946C0B20393FFF737FFBDE790ED00E0C6
:1046100048300200D82F0200DA3B0200B73B02000C
:104620000522034B5A60BFF34F8FBFF36F8F704764
:1046300090ED00E0BFF35F8F0022014B5A6070479E
:1046400090ED00E010B5034C2278FFF72FFF2070AB
:1046500010BD00BF9DE200202DE9F74F264D8A4690
:1046600006464FF00008AB46244FD0451BDAD6F87B
:104670000490B9F1000F39D03168084601910BF070
:1046800032FC0199044609EB010001380BF02BFCC8
:1046900084424FF014021A4B08D06FF0150302FB4E
:1046A00008F84BF8083003B0BDE8F08F14F1160F8E
:1046B0002C60F8D01978A142F5DD02FB08B0BC608F
:1046C000BC60FC6800F10801007B64F30400087121
:1046D00038690C79400860F347140C71F96821F0CF
:1046E0001F016960396921F01F01296108F1010882
:1046F00014350C36B9E700BF6CD1002090ED00E016
:104700009DE2002038B50E4C2568102D14D8FFF717
:1047100091FF00200B4B0C4A1A63854205D10B4BCD
:104720001D70FFF77DFF002038BD616801EB0011AF
:10473000FFF78AFE0130F0E74FF0FF30F4E700BFEB
:10474000A831020090ED00E0AAFF44009DE20020A5
:10475000014B1860704700BF38C5002010B5074CEA
:104760002368C2180648C0F1005101F580218A4231
:104770002EBF4FF0FF30C018226010BD80D1002046
:10478000D86B0120037B70B55A0704460D460CD543
:10479000BDE87040114A124B1249D21AD208920158
:1047A000114842F002020AF03EBD43F004030373D5
:1047B00003689B684BB9237B6FF3820323732368E1
:1047C000C4E900532B682BB970BD9847237B9B0726
:1047D000F1D5F9E72046BDE8704018477030020077
:1047E000D82F02001D3C0200FD3B0200014807F0EB
:1047F000BBBF00BF7CC8002002460B46014807F043
:1048000035BF00BF7CC8002038B54FF0FF304FF0F7
:10481000FF31FFF7F1FF0A4C0A4DAC42204603D3AB
:10482000BDE83840FFF7E2BF036804341B689B68AB
:10483000002BF2D01B68002BEFD09847EDE700BFAC
:10484000ECC80020F0C8002038B5074C074DAC423A
:1048500000D338BD032120460BF0ACFB10B9204635
:104860000BF0B1FB0434F2E7ECC80020F0C80020E4
:1048700000232DE9F04F022889B006461546CDE900
:10488000063303913CD106A8059101461A4606E07D
:104890000C78013201340C70D4B2072C04D8039C7C
:1048A00034F81240002CF3D00133082B01F1010140
:1048B000ECD14FF0FF374FF00108002310F8012B27
:1048C000424588BF5FB203F10103DBB288BF904667
:1048D000082BF3D1B8F1010F9B464FF03A0A08BFFD
:1048E0004FF0FF37002128460C465C4517DBA842F5
:1048F00008D00023012E0CBF00F8013C037002E039
:10490000012804D00025284609B0BDE8F08F4FF0FB
:10491000040B4FF02E0A4FF0FF378046E2E7BBF161
:10492000040F3ED1039B1A5D4AB90346302203F8B7
:10493000022B80F801A001341846E4B2D5E7CDE996
:10494000012000224FF00909DFF8F0C00492DDF8E1
:1049500004E0BEFBFCF20CFB12E20192049A4A4511
:1049600001DCE64509D3BEFBFCFE029B0EF1300ED6
:1049700003F801EBCDF8109002930A2209F1FF39F8
:10498000B9F1FF3FBCFBF2FCE1D14FF00002029B0A
:104990001A701B1ADAB250FA83F3013300F802A03E
:1049A000C9E7A7420ED101B917B93A2300F8013B74
:1049B0003A22034603F8012B08F1FF321444002188
:1049C000E4B2B8E711B13A2300F8013B059B33F894
:1049D0001430190241EA132111F47F4F0AB2C1F3D6
:1049E00007235FFA81F919D00F2BD9B20DD9002313
:1049F00061220BF023FB8446012361224946604675
:104A00000BF01CFB0346012195E75BB2092994BF1B
:104A10003033573300F1010C0370EDE7B9F10F0F9C
:104A200002D961224946EBE752B2B9F1090F94BFAE
:104A300030325732431C0270E5E700BF00CA9A3B90
:104A400013B50A4C206818B9094807F083FB2060A9
:104A5000042283680DEB02011B689847002802DAE4
:104A60000BF09DFD0190019802B010BD84D1002093
:104A7000423C020070B504460C250D480E46231A30
:104A80009A100C4B40215343DBB25D4305F14003C8
:104A900018440BF0FBFA011E04DB074B2B445B6848
:104AA0009847002120463346BDE87040184700BFB4
:104AB00098D10020B76DDBB6E83102002DE9F04156
:104AC0000F4C104D031B9B105D43EBB20C255D4357
:104AD000074605F140000E46204440210BF0EFFA56
:104AE000011E08DB084B2C44C4E90E36074B5B590A
:104AF000BDE8F041184738463346BDE8F041184755
:104B000098D10020B76DDBB621010200E831020028
:104B100070B50022012104460520FFF7E1F80520C9
:104B2000FFF7C0F80F4804F04DF80F4B984215D12D
:104B30000CF04DF926690D4930460AF0E4F80028DA
:104B40000BDB012535642469084904F11C000AF0D7
:104B5000DAF8002801DB0020E56470BD6FF0040086
:104B6000FBE700BFA54B01000000AD0B00320200C7
:104B700001460C2300224B43084870B5C41840334B
:104B8000D4E90E561844A2630BF0B7FA2DB13246A1
:104B90002B46BDE870400248184770BD98D10020F0
:104BA000342D020010B1012804D07047034B1B6C58
:104BB0005B0701D1FFF7DCBF704700BF98D1002031
:104BC00008B54FF02003EFF3118183F31288BFF390
:104BD0006F8F114A136843F0020013F00103106055
:104BE0000BD00E4AD2F80C34D2F80C2413F0010387
:104BF00003D00B480BF081FA012381F31188BFF336
:104C00006F8F23B1BDE808400020FFF7B1BF01203E
:104C1000BDE8084003F0E6BFE8D1002000500040A6
:104C2000D8D10020074BD3E8EF2F22F00201C3E8D0
:104C3000E01F0028F7D1D30702D4012004F004B804
:104C4000704700BFE8D100207FB500220123CDE9E5
:104C5000022304ABCDE90433094A6B46CDF800D0FA
:104C6000CDF804D00BF082FA002805DB4FF4804227
:104C70000023684607F01AFE07B05DF804FB00BF8A
:104C80003F0102002DE9F843012207463649D1E8E9
:104C9000EF3FC1E8E02F0028F9D133B93349344858
:104CA0004B60CB608A600AF041F87B1E012B2ED846
:104CB000012F06D12F4BD3F81C3403F00303022B32
:104CC00025D00DF070F8044618B92B4B1B78002B3B
:104CD00044D14FF02003EFF3118683F31288BFF322
:104CE0006F8F0124234DDFF89C80A946D5F8183436
:104CF000D5F81824D2030CD503F00303022B01D0FE
:104D0000012F06D134B386F31188BFF36F8FBDE84E
:104D1000F883D4B13046FEF783FFD5F81835DBB2FF
:104D2000012BE3D1D8F80020002ADFD00022C8F8F8
:104D30000020D8F8002002222021C5F818250F4AAB
:104D4000C2F880110E4A1360D0E70021212008F03C
:104D50001FFAE2E70223C9F80433D8E70222054B21
:104D60000646C3F80823BDE7ECD1002088D1002017
:104D7000B4D10020005000403DF5002000E100E0EB
:104D8000085000400451004008B50848084B18601E
:104D90000CF044FF38B10748FFF7DAFC0548FDF78F
:104DA00091F9002008BD6FF01200FBE7942D02007E
:104DB000F0D10020B94D01000A2838B50446074D4E
:104DC00004D1286883680D215B6898472868836848
:104DD000E1B25B689847204638BD00BFF0D10020A3
:104DE00030B5406801F01F05047BB2F5005F45EA6D
:104DF000441585B04FF0000404D1284604F0E2F9D0
:104E000000202CE0B2F5804FCDE9024429D1B3F562
:104E1000003F0CBF042305238DF80830836823FA74
:104E200001F1C90729D4B2F5A03F26D11B4A05F0EC
:104E30001F03803352F82330DB071ED40DF1070423
:104E40002146284604F02EF9154B984214D12046ED
:104E500004F072F9134B98420ED06FF00B0005B0BE
:104E600030BDB3F5C02F05D0B3F5003F0CBF022312
:104E70000123D1E70323CFE70394002328461946F3
:104E800002AA03F0CFFF074B984204D10121284624
:104E900004F058F9B4E76FF00400E0E7002584401F
:104EA0000400AD0B0000AD0B10B504F035F904465D
:104EB00068B904F009F9084B98420AD1214607481D
:104EC00004F0EAF8224605213120FEF709FF002010
:104ED00010BD6FF00400FBE70000AD0BE14E0100D8
:104EE000430970B517D10C4B5968A1B10C68012565
:104EF000002C38BF0024094E85408A682A4002D021
:104F000030464B68984734B123682146002B38BFA0
:104F100000231C46F1E770BDF4D100204C2D0200A7
:104F20002DE9F043476801F01F053B7B0E46144610
:104F300085B045EA4315CAB902A9284604F0B2F87B
:104F40000446284604F060F9474B984204D06FF0BD
:104F5000040005B0BDE8F083844205D19DF8080047
:104F600004F0E4F8A042F2D10020F2E74FF000098B
:104F70000DF103013046CDE9029904F093F84B4658
:104F800080464946284602AA03F04CFF364B984219
:104F900002D06FF01500DCE7804503D19DF80300D7
:104FA00004F0C4F8A3054CD5304B314A234093425A
:104FB00039D00CD8062B14D004D893B1022BE8D1E9
:104FC00004230EE0B3F5801FE3D1012309E0294A51
:104FD00093422AD0B3F5A00F29D0B3F5800FD8D1D2
:104FE00002238DF8043084F48073C3F30023E006B9
:104FF0008DF805304CBF0323C4F3401321058DF811
:10500000063016D501217B6801FA06F69E60002263
:10501000284601A903F0ACFF134B984214BF6FF070
:105020001500002095E70723DBE70523D9E70323D5
:10503000D7E7620541BF01217B6801FA06F6DE6011
:10504000E5E7E3064FF000034CBF0324C4F340142C
:105050001A46284601A98DF8044003F0E3FE024BEE
:10506000984281D095E700BF0000AD0B0600F0002C
:105070000600100002004000F0B54B79012B26D04D
:10508000032B21D110268B79032B1DD1CC790CB1A8
:10509000012C19D10A7912B1022A15D10E220B68FE
:1050A0004568B3F5164F2D6865D02DD8B3F5165F5A
:1050B00064D016D8B3F5966F62D00AD8B3F5967F50
:1050C00061D0B3F5167F61D06FF0850052E0002605
:1050D000D9E7B3F5166F5CD0B3F5965FF4D1374BD3
:1050E0003CE0B3F5E14F57D007D8B3F5615F55D039
:1050F000B3F5964FE8D1324B30E047F61227BB426A
:10510000E2D14FF4000329E0B3F5613F48D013D852
:10511000B3F5963F47D009D84DF6C027BB4244D0DF
:10512000B3F5614FD0D14FF46B0317E0B3F5E13F16
:10513000CAD14FF0EB7311E0B3F5612F38D008D826
:10514000204FBB4237D0B3F5E12FBDD14FF0E8631C
:1051500004E01D4FBB42B7D14FF08053C5F8243552
:10516000036934432243043303C9C5F86C2583E83B
:1051700003000020F0BD4FF41D03EFE7134BEDE7F4
:105180004FF49E23EAE74FF4A033E7E74FF41C33D4
:10519000E4E74FF41D23E1E70D4BDFE70D4BDDE7BF
:1051A0004FF06C73DAE70C4BD8E74FF46503D5E7A3
:1051B0004FF07063D2E74FF08063CFE700B0130089
:1051C00000A04E0090D0030040420F000050270086
:1051D00000C0750000F03A0000903A01F8B50546AD
:1051E0000F4606690CF0DFFD10B9204B1B7883B920
:1051F0004FF02003EFF3118483F31288BFF36F8F16
:1052000028460BF085F828BB84F31188BFF36F8F15
:10521000EEE7642428460BF07BF870B901200BF010
:10522000D4FD013CF6D10021212007F0B1FFF0E7C9
:1052300084F31188BFF36F8FF5E74FF02003EFF38E
:10524000118483F31288BFF36F8F28460BF060F848
:105250000028EDD031460122284601F8147F0BF0DA
:10526000EAF884F31188BFF36F8FF8BD3DF5002095
:105270002DE9F8430023476805693C68C4F8003508
:1052800028604368DE68711C0BD00121DFF850C133
:1052900006F01F029140CCF80810032180324CF830
:1052A000221019694A1C0DD01A7FDFF834C1002A78
:1052B00014BF4FF00C0E4FF0000E01F01F028032B1
:1052C0004CF822E0D3F814C0BCF1FF3F0ED04FF0F1
:1052D000010EDFF80C810CF01F020EFA02FEC8F876
:1052E00008E04FF0030E803248F822E0D3F818E0CF
:1052F000BEF1FF3F0DD05A7FDFF8E480002A14BFD3
:105300004FF00C094FF000090EF01F02803248F8F0
:1053100022901B68C3F80C65C3F814150169C3F823
:1053200008C50431C3F810E5FFF7A6FE0646A8B984
:105330007B68990722D505F1160003F0F9FC234B91
:1053400098420ED0224B23492348C91AC908890123
:1053500041F0010109F05AFF6FF004063046BDE844
:10536000F883AB7D43F00043C4F8A031C4F88C301F
:105370000123AA7D9340194AC2F804350823C4F8D2
:1053800000353B7A5BB9C4F81031D4F8103105F11F
:105390001503C4F834350123C4F8383523607B681D
:1053A00014359A075CBF4FF48072C4F80423DB06FF
:1053B00044BF4FF48003C4F804330023C4F84455B9
:1053C000C4F848350123A360E360C7E70000AD0BD4
:1053D000D82F020080300200773C020000700140AC
:1053E00000258440194970B5044622F07F460868BC
:1053F000C1E90023A6F50013101AB3F5400F4FF0D2
:1054000000050AD20125124B19680A060B0A9219E7
:10541000104943F10003C1E9002308F03FF8A3005D
:1054200003F1804303F5A833D3F84025B2420BD1F2
:105430001DB94FF40002C3F840254FF48030064BED
:1054400000FA04F4C3F8444370BD00BFF0CB002061
:1054500008D20020D8CB0020005001400123834017
:1054600010B5DC430C4AD2E8EF1F01EA040CC2E895
:10547000EECFBEF1000FF6D14FF4803202FA00F009
:10548000064AC2F80803BFF35F8FBFF36F8F0B426A
:1054900014BF0120002010BD04D2002000500140A4
:1054A00001230E4A8340D2E8EF1F1943C2E8EC1FE4
:1054B000BCF1000FF7D14FF48033094A8340C2F8A2
:1054C0000433084BD3E8AF3F23FA00F0C30742BFD1
:1054D0004FF40012044BC3F80021704704D200209F
:1054E0000050014000D2002000E100E00D4B1B689D
:1054F000190A1806BFF35F8F0B4BD3F80435C01899
:1055000041F10001B3F5801F0AD2084BD3E9002313
:10551000994208BF904203D210F1807041F100011E
:10552000704700BF08D2002000500140D8CB0020B7
:105530002DE9F74F16461F460546FFF78FFF0090EF
:10554000FFF7D4FFB94208BFB0427BD200234FF02F
:105550008072B6EB000867EB01094B4508BF424576
:105560007DD3404B03EB0513D3E902239F4208BFD1
:10557000964251D04FF4803B26F07F4214464FEACA
:10558000850905F1500809F180494FEA880809F5B5
:10559000A8391FFA88F808F18048D9F84005324B3D
:1055A00008F5A8380BFA05FBD3F804A5A0EB0A0010
:1055B00020F07F402AF07F410128C9F8401505D12D
:1055C000019213200CF051FE274B019A0AF1020CB4
:1055D000A4EB0C0020F07F400021B0F5000F88BF45
:1055E0006446C8F80010D8F8000024F07F40C3F8E3
:1055F00044B3C9F84005D3F80405824506D0201A03
:10560000023820F07F40B0F5000F19D8A41A24F01A
:105610007F44321947F10003124C290104EB0510B5
:10562000C0E902230C9A0D9B625000244360009B4A
:1056300013B12846FFF734FF204603B0BDE8F08FD2
:105640002046B1E70123094AAB40D2E8EF1F1943D6
:10565000C2E8E01F0028F8D132463B46DCE76FF095
:105660001504E4E7E0CB00200050014000D2002008
:1056700073B500244FF0FF304FF0FF31164D174B3C
:10568000C5F80845C3E902014FF4803302264FF400
:105690000012C5F80433124B0121C5F8046315202C
:1056A000C3F880212246FEF71BFB1520FEF7FAFA0D
:1056B00001230C4A204613600B4A2B6013600B4BEE
:1056C0000B4A009301940023FFF732FF3046FFF7A7
:1056D000D9FA204602B070BD00500140E0CB002056
:1056E00000E100E00850014004D20020E553010031
:1056F000FFFF7F00334B2DE97343D3F804339A0740
:1057000009D5314B1A6832B100221A602F4A1B6842
:105710001368013313604FF02003EFF3118283F31A
:105720001288BFF36F8F274BD3F80433DB030ED5FA
:10573000274BD3E8EF1F21F00100C3E8E40F002C52
:10574000F7D1244B002936D11968002933D1002321
:1057500082F31188BFF36F8F53B3FFF7C7FE044680
:105760004FF02003EFF3118083F31288BFF36F8FA4
:10577000194B0022D3E90289494508BF44451FD38C
:10578000D3E900164FF0FF344FF0FF351A604FF4A5
:105790008032C3E902450B4BC3F8482380F31188DC
:1057A000BFF36F8F21B142464B46002000968847D9
:1057B00002B0BDE87083002119601B680123C7E7B0
:1057C0001146EBE7005001400451014008D200208F
:1057D00000D2002040510140E0CB0020144B13B513
:1057E000B0F1FF3F08BF1846441E002C1DDD9C424F
:1057F000A8BF1C46FFF77AFE0E4B0F49D3E90023E2
:10580000801AB0F5000F28BF002401300444084876
:105810000091844228BF044600201219019043F1F0
:105820000003FFF785FE02B010BD0024E2E700BFD1
:10583000FFFF7F00F0CB0020E553010008B5FFF724
:1058400055FE024B1B68C01A08BD00BFF0CB0020FC
:1058500038B5194D194C2B7833B9C4E900331848C1
:105860000CF0B5FA01232B7000222A201146FEF716
:1058700037FA0021134806F0F1FB134B18604FF084
:10588000FF324FF0FF330E4806F0F0FE206870B193
:105890000468002C38BF0024043006F0E1FF34B166
:1058A00023682046002B38BF00231C46F4E7044839
:1058B00006F05AFF002038BDDEE2002010D20020A2
:1058C00018D20020D43202000CD2002070B50D4C4A
:1058D00002460A25002620460B4B1B6801689142B0
:1058E0000ED051B14168591AB142C4BF04460E46A8
:1058F000013D00F10800F1D12046013B0260436008
:1059000070BD00BF9CD2002078D20020684620F0F5
:1059100007018D4619B50F4BD3E8EF2F0132C3E8CD
:10592000E12F0029F8D104F05FF80B4B1C68002C24
:1059300038BF00242CB1201D06F092FF2468002CF3
:10594000F8D1FEF7E3F9FEF7C1FABDE81940854644
:10595000704700BF78D2002094D200202DE9F04F8C
:105960000C4689B00CF07FFC23688046002B8A46E9
:1059700003D107F07FFB742091E0BCBF4FF0FF33F1
:1059800023600122002102A80CF0A4FA01AD4FF01F
:105990002003EFF3118B83F31288BFF36F8F07F0AF
:1059A00011FCFFF793FF474943680A688946934211
:1059B0004FF0000308D10193434B5A68002A71D17C
:1059C000C3E90055012300E042608BF31188BFF367
:1059D0006F8F002B62D023685A1C66D04FF4004EA4
:1059E00040F2E730002123EAE37C4FF47A7200238F
:1059F000CEFB0C01FBF754FA02460B4602A806F058
:105A000055FF4FF02003EFF3118B83F31288BFF3A0
:105A10006F8F00202C4B1A685AB1AA424FD1019DBA
:105A2000002846D159681D60914200D15D60002375
:105A3000019307F0C7FBFFF749FFD9F80030436037
:105A40008BF31188BFF36F8F25686B1C26D00CF089
:105A50000AFC4FF47A7C8E46A8FB0C89A0FB0C0153
:105A60000CFB0A990CFB0E114FEAD83242EA49426C
:105A700052194FEAD93343EBE573C50B45EA41456B
:105A8000561B4FEAD13C63EB0C07002E77F1000365
:105A9000B8BF00262660002E3FF46DAF002009B08D
:105AA000BDE8F08F15605D608CE74FF0FF32134664
:105AB000A4E705605968914208BF5860B7E71046EF
:105AC0001268A9E778D2002094D2002070B404684C
